:100000000C9434080C945C080C945C080C945C0808
:100010000C945C080C945C080C945C080C945C08D0
:100020000C945C080C94AB0F0C94A21E0C943F141F
:100030000C941A1A0C945C080C945C080C945C08E0
:100040000C945C080C945C080C945C080C945C08A0
:100050000C945C080C945C080C945C080C947E195D
:100060000C945C080C94F6160C94D0160C945C0856
:100070000C945C080C945C080C945C080C945C0870
:100080000C945C080C945C080C945C080C945C0860
:100090000C945C080C945C080C945C080C945C0850
:1000A0000C945C080C945C080C945C08F717FA1725
:1000B000E917ED17F1171B181B181B18FE1702186C
:1000C00006180C1810181B181618657863657373DA
:1000D00069766520726574726965730053616D702D
:1000E0006C696E67205461736B203A20006F7069F1
:1000F00064207375636365737366756C0053616D1B
:10010000706C696E67205461736B203A20006765DC
:100110007474696E67206F7069642066726F6D20F9
:10012000626F780053616D706C696E672054617303
:100130006B203A200045726173650053746F7261E1
:100140006765203A200072656163686564206D61AF
:10015000782072657472696573206F6E2073656EA6
:1001600064005265706F7274696E67205461736BBE
:10017000203A20007265706F72742073656E74008F
:100180005265706F7274696E67205461736B203AA8
:1001900020006D6F64756C65206572726F722C2023
:1001A0007265747279696E67005265706F727469F6
:1001B0006E67205461736B203A200073656E64692A
:1001C0006E67207265706F7274005265706F727422
:1001D000696E67205461736B203A20006D6F6475FF
:1001E0006C6520636F6E6E65637465640052657044
:1001F0006F7274696E67205461736B203A200072CD
:10020000656163686564206D6178207265747269E8
:100210006573206F6E207374617274005265706F25
:100220007274696E67205461736B203A20006D6FA1
:1002300064756C65206572726F72005265706F72C2
:1002400074696E67205461736B203A200061747486
:10025000656D7074696E6720746F20737461727459
:10026000207265706F7274005265706F7274696E7F
:1002700067205461736B203A2000537461727400DC
:100280005265706F7274696E67205461736B203AA7
:10029000200073746F722074657374206661696CDA
:1002A000656400436F6D6D756E69636174696F6E2F
:1002B000204D6F64756C65203A200073746F722056
:1002C00074657374207375636365737300436F6D36
:1002D0006D756E69636174696F6E204D6F64756CC6
:1002E00065203A200072657363686564756C696E99
:1002F00067005265706F7274696E67205461736B2A
:10030000203A200052656164206572726F7200535A
:10031000746F72616765203A2000526561642073D2
:10032000616D706C650053746F72616765203A206F
:1003300000636F6E6669726D696E672072656164D5
:100340002064617461005265706F7274696E672019
:100350005461736B203A20007265616368656420A4
:100360006D61782072657472696573206F6E207399
:10037000656E64005265706F7274696E67205461B7
:10038000736B203A20007265706F72742073656E13
:1003900074005265706F7274696E67205461736B7C
:1003A000203A20006D6F64756C65206572726F7203
:1003B0002C207265747279696E67005265706F7275
:1003C00074696E67205461736B203A2000636F6E0E
:1003D0006E656374696F6E206572726F720052652C
:1003E000706F7274696E67205461736B203A2000DD
:1003F00073656E64696E67207265706F7274005207
:1004000065706F7274696E67205461736B203A2057
:10041000004661696C656420746F207265616420B8
:100420006D656D6F7279005265706F7274696E6779
:10043000205461736B203A200072656164696E67B5
:100440002073616D706C65732066726F6D206D65D1
:100450006D6F7279005265706F7274696E672054A7
:1004600061736B203A20006D6F64756C6520636F5B
:100470006E6E6563746564005265706F7274696E48
:1004800067205461736B203A200072656163686570
:1004900064206D61782072657472696573206F6E77
:1004A000207374617274005265706F7274696E6744
:1004B000205461736B203A2000636F6E6E65637425
:1004C000696F6E206661696C6564005265706F7259
:1004D00074696E67205461736B203A20006D6F64FD
:1004E000756C65206572726F72005265706F727400
:1004F000696E67205461736B203A200061747465E3
:100500006D7074696E6720746F20737461727420EB
:100510007265706F7274005265706F7274696E6785
:10052000205461736B203A2000676F7420616D6FF7
:10053000756E74206F662064617461005265706F1F
:100540007274696E67205461736B203A20006E6F7D
:100550007420656E6F7567682073616D706C65736C
:100560002C2061626F7274005265706F7274696ED4
:1005700067205461736B203A20007175657272793F
:10058000696E672064617461005265706F7274698E
:100590006E67205461736B203A20004661696C6578
:1005A0006420746F207374617274206D656D6F7256
:1005B00079005265706F7274696E67205461736B55
:1005C000203A20005374617274005265706F727427
:1005D000696E67205461736B203A20006261642069
:1005E000636865636B73756D0053616D706C696EE4
:1005F00067205461736B203A200053616D706C6901
:100600006E67205461736B203A2000626164206839
:1006100065616465720053616D706C696E6720542A
:1006200061736B203A2000636F6D6D616E6420749E
:10063000696D656F75740053616D706C696E6720CC
:100640005461736B203A200073656E64696E672095
:10065000636F6D6D616E640053616D706C696E6780
:10066000205461736B203A20006578636573736969
:10067000766520726574726965730053616D706C84
:10068000696E67205461736B203A200073616D704E
:100690006C696E67207375636365737366756C0050
:1006A00053616D706C696E67205461736B203A20E2
:1006B0000067657474696E67206461746120667296
:1006C0006F6D20626F780053616D706C696E67208A
:1006D0005461736B203A200057726974652065720B
:1006E000726F720053746F72616765203A20005711
:1006F000726974652073616D706C650053746F72FC
:10070000616765203A2000656E640053616D706C0E
:10071000696E67205461736B203A200077726974A8
:1007200074696E672073616D706C6520746F2073DF
:10073000746F726167650053616D706C696E6720DC
:100740005461736B203A200073616D706C696E6741
:10075000206661696C6564202D207772697465205C
:100760006661696C656420746F206D656D6F727968
:100770000053616D706C696E67205461736B203A31
:1007800020004661696C656420746F207374617227
:1007900074206D656D6F72790053616D706C696E58
:1007A00067205461736B203A200072756E6E696E1B
:1007B000672053616D706C696E67207461736B00A4
:1007C00053616D706C696E67205461736B203A20C1
:1007D0000047534D20436F6D6D203A20000D0A4FA6
:1007E0004B0D0A0041544530000D0A4F4B0D0A00D5
:1007F000415400506F776572206F6E0047534D2053
:10080000436F6D6D203A20004E4F524D414C2050A9
:100810004F57455220444F574E0041542B43504FA1
:1008200057443D3100506F776572206F6666004710
:10083000534D20436F6D6D203A20004441544120B8
:1008400073657373696F6E2073746172746564008D
:1008500047534D20436F6D6D203A20004661696C0F
:10086000656420746F207374617274204441544134
:100870002073657373696F6E0047534D20436F6D2E
:100880006D203A20000D0A444F574E4C4F41440D05
:100890000A002C36303030300041542B485454502C
:1008A000444154413D005374617274696E6720483D
:1008B000545450444154412073657373696F6E0002
:1008C00047534D20436F6D6D203A20004661696C9F
:1008D000656420746F20636F6E666967757265204A
:1008E00048545450206D6F64756C650047534D201B
:1008F000436F6D6D203A20000D0A4F4B0D0A0041E9
:10090000542B48545450504152413D2255524C2290
:100910002C2234362E3130312E3231312E313631D7
:100920003A383038302F757769704D6F64436F6D8A
:100930002D7761722F506F7374546F44623F494436
:100940003D303030303030303522004661696C65E2
:100950006420746F20636F6E6669677572652048E6
:10096000545450206D6F64756C650047534D20439F
:100970006F6D6D203A20000D0A4F4B0D0A00415457
:100980002B48545450504152413D2255524C222C38
:100990002234362E3130312E3231312E3136313A49
:1009A000383038302F757769704D6F64436F6D2D17
:1009B0007761722F506F73745465737452657375D9
:1009C0006C74733F49443D30303030303030352224
:1009D000004661696C656420746F20636F6E6669A0
:1009E000677572652048545450206D6F64756C654E
:1009F0000047534D20436F6D6D203A20000D0A4F84
:100A00004B0D0A0041542B48545450504152413D23
:100A100022434944222C31000D0A4F4B0D0A00415C
:100A2000542B48545450494E495400436F6E6669E4
:100A3000677572696E672048545450206D6F6475F5
:100A40006C650047534D20436F6D6D203A20004682
:100A500061696C656420746F20636F6E6669677589
:100A600072652041504E0047534D20436F6D6D20FD
:100A70003A20000D0A4F4B0D0A0041542B534150B0
:100A800042523D312C31000D0A4F4B0D0A004154AA
:100A90002B53415042523D332C312C22505744228B
:100AA0002C202222000D0A4F4B0D0A0041542B53DB
:100AB000415042523D332C312C2255534552222C69
:100AC000202222000D0A4F4B0D0A0041542B5341A6
:100AD0005042523D332C312C2241504E222C2022A8
:100AE0004E6578746D326D22000D0A4F4B0D0A0071
:100AF00041542B53415042523D332C312C22436FF1
:100B00006E74797065222C20224750525322004384
:100B10006F6E6669677572696E672041504E004757
:100B2000534D20436F6D6D203A2000436F6E6E650C
:100B30006374696F6E20737461626C697368656455
:100B40000047534D20436F6D6D203A2000436F6E78
:100B50006E656374696F6E2074696D656F7574007E
:100B600047534D20436F6D6D203A20002B43474182
:100B700054543A20310041542B43474154543F00D0
:100B8000417474656D7074696E6720636F6E6E6515
:100B90006374696F6E0047534D20436F6D6D203A4B
:100BA00020004D6F64756C65206973206F6E00477F
:100BB000534D20436F6D6D203A2000737461727441
:100BC000696E672073657269616C0047534D2043FD
:100BD0006F6D6D203A2000537461727420726570DD
:100BE0006F72740047534D20436F6D6D203A2000A3
:100BF0007374617274696E672073657269616C00E9
:100C000047534D20436F6D6D203A20005365747536
:100C1000700047534D20436F6D6D203A200053659F
:100C20007475700053746F72616765203A200053C9
:100C3000657475700053616D706C696E67205461E6
:100C4000736B203A20005365747570005265706FA5
:100C50007274696E67205461736B203A200053658B
:100C6000747570005363686564756C6572203A2012
:100C7000004D61696E6C6F6F7000536368656475D9
:100C80006C6572203A20007363686564756C6572E8
:100C9000206D61696E6C6F6F7000436F6D6D756E66
:100CA00069636174696F6E204D6F64756C65203A7D
:100CB00020007363686564756C65722061646420EC
:100CC0007461736B00436F6D6D756E6963617469F8
:100CD0006F6E204D6F64756C65203A2000736368F9
:100CE0006564756C657220616464207461736B0067
:100CF000436F6D6D756E69636174696F6E204D6FC2
:100D000064756C65203A20007363686564756C6572
:100D10007220736574757000436F6D6D756E6963D5
:100D20006174696F6E204D6F64756C65203A2000A8
:100D30007265706F7274696E672073657475700088
:100D4000436F6D6D756E69636174696F6E204D6F71
:100D500064756C65203A200073616D706C696E6714
:100D600020736574757000436F6D6D756E69636196
:100D700074696F6E204D6F64756C65203A20007346
:100D8000746F7261676520736574757000436F6D71
:100D90006D756E69636174696F6E204D6F64756CFB
:100DA00065203A200067736D207365747570004389
:100DB0006F6D6D756E69636174696F6E204D6F64E0
:100DC000756C65203A20005374617274696E670017
:100DD000436F6D6D756E69636174696F6E204D6FE1
:100DE00064756C65203A2000080B000202020100C5
:100DF000090400000102020000052400100105247E
:100E000001010104240206052406000107058103EF
:100E100010004009040100020A0000000705020258
:100E2000400000070583024000000403090412018A
:100E30000002EF0201409A230C800001010203012D
:100E400041646166727569740046656174686572B3
:100E5000203332753400206279746573206F662008
:100E6000646174612073656E740047534D20436F55
:100E70006D6D203A200046696C6C207265706F724F
:100E8000740047534D20436F6D6D203A20000D0ACA
:100E90004F4B0D0A0041542B485454505445524D69
:100EA000004854545020636F6465203A2000475333
:100EB0004D20436F6D6D203A2000476F7420616EA6
:100EC000737765722066726F6D20726571756573D8
:100ED000740047534D20436F6D6D203A20004D6FD5
:100EE00064756C6520646964206E6F74207265732C
:100EF000706F6E640047534D20436F6D6D203A2034
:100F0000002B48545450414354494F4E3A20312C01
:100F100000504F535420616374696F6E206661699D
:100F20006C65640047534D20436F6D6D203A20007F
:100F30000D0A4F4B0D0A0041542B48545450414365
:100F400054494F4E3D310053656E64205265706FB9
:100F500072740047534D20436F6D6D203A20000D91
:100F60000A4F4B0D0A0041540041626F72740047F2
:100F7000534D20436F6D6D203A200053746172749D
:100F80000053746F72616765203A200041626F728E
:100F9000740053746F72616765203A2000456E6477
:100FA0000053746F72616765203A20005175657255
:100FB0007920617661696C61626C650053746F724F
:100FC000616765203A2000416464207461736B009E
:100FD0005363686564756C6572203A2000000000F8
:100FE00000240027002A002D00300000000002002D
:100FF000090F0000030401000C00000000000000C5
:1010000000000000000000000000000000002500BB
:1010100028002B002E0031000000000023002600D5
:1010200029002C002F000404040404030405020218
:101030000202040302020202060606060606040471
:101040000202020404040802011040804010204003
:1010500080408008020401804020100201108010AE
:10106000204040207A21702111241FBECFEFDAE00A
:10107000DEBFCDBF24E0ACE7B2E001C01D92A734D3
:10108000B207E1F712E0A0E0B1E0ECE2FBE402C05D
:1010900005900D92AC37B107D9F718E0C3E3D8E05B
:1010A00004C02197FE010E94D422C233D107C9F7A0
:1010B0000E94481F0C9489250C94000020912B035A
:1010C00030912C032817390771F4909129038091EE
:1010D0002A03981741F0E0912903F0E0E358FD4F0F
:1010E000808190E008958FEF9FEF089508951F93FA
:1010F000CF93DF93DC015C962D913C915D97211598
:10110000310539F481E090E013969C938E93129709
:101110003DC05196ED91FC91529750969C915097FD
:10112000892F80951FB75E964C915E9741FB77277C
:1011300070F941FD6095F8944081772311F0492BB7
:1011400001C048234083E9012197F1F748E050812D
:1011500060FF02C0592B01C058235083E901219739
:10116000F1F76695415099F7772321F09081892313
:10117000808303C08081982B90831FBF5C968D91E4
:101180009C915D970197F1F721E030E0C901DF9173
:10119000CF911F91089520912B0330912C03281794
:1011A000390771F480912A032091290390E0805C33
:1011B0009F4F821B910960E470E00E949E22089577
:1011C00080E090E0089520912B0330912C032817A4
:1011D0003907B9F49091290380912A03981789F06F
:1011E000E0912903F0E0E358FD4F8081209129032D
:1011F00030E02F5F3F4F2F7333272093290390E078
:1012000008958FEF9FEF08956F927F928F929F9234
:10121000AF92BF92CF92DF92EF92FF920F931F9304
:10122000CF93DF93CDB7DEB7A0970FB6F894DEBFAC
:101230000FBECDBF7C016B0162E370E080E090E007
:101240000E94AF188DE293E00E946313892B49F04E
:101250008DE293E00E94411365E070E080E090E051
:10126000EFCF68E576E08AEC93E00E94811688E48F
:1012700096E00E94ED1C43E150E060E971E08DE2F0
:1012800093E00E941613F701408550E0B7018DE20C
:1012900093E00E94161388EE93E0A0E0B0E0809304
:1012A000310390933203A0933303B0933403F701D7
:1012B0008184912CCE0101965C013C0100E010E09C
:1012C0000815190508F043C02FB7F89480911A0348
:1012D00090911B03A0911C03B0911D032FBF80931D
:1012E000350390933603A0933703B0933803E0910E
:1012F0002D03F0912E030680F781E02D8DE293E01F
:10130000099597FF31C02FB7F89480911A039091F7
:101310001B03A0911C03B0911D032FBF4091350307
:10132000509136036091370370913803841B950BFD
:10133000A60BB70B409131035091320360913303F8
:101340007091340384179507A607B70780F2F70159
:101350008185801779F067E376E08AEC93E00E945C
:10136000811687E296E017C0F30181933F010F5F7A
:101370001F4FA6CF8981853C31F48A818A3619F4C2
:101380008B81893261F066E176E08AEC93E00E941D
:1013900081168BE096E00E94ED1C8FEF5BC0F5019B
:1013A00080E01127015011099F012A193B092017DC
:1013B000310754F49191892798E02CE8869508F438
:1013C00082279A95D9F7F0CFF501E00FF11F9081B0
:1013D000891749F069EE75E08AEC93E00E94811666
:1013E0008CED95E0D8CFF701438550E08285B501BB
:1013F000680F711DC6010E94DF226AEF75E08AEC5A
:1014000093E00E9481166EEE71E08AEC93E00E94F8
:10141000CE168601F701838590E098012C193D09CD
:101420002817390784F462E672E08AEC93E00E94A0
:10143000CE16F80161918F0170E080E090E040E10C
:101440000E94001DE7CF69E772E08AEC93E00E94FA
:10145000A51680E0A0960FB6F894DEBF0FBECDBFF4
:10146000DF91CF911F910F91FF90EF90DF90CF9080
:10147000BF90AF909F908F907F906F900895CF9284
:10148000DF92EF92FF920F931F93CF93DF937C0134
:1014900067EC76E08AEC93E00E94811681EB96E09F
:1014A0000E94ED1C03EA11E0C0E0F801C080D18089
:1014B000B701C6010E940409D82F882321F0C53046
:1014C00021F0CF5FF2CFC53061F46BE776E08AECB4
:1014D00093E00E94811689E696E00E94ED1CDFEF02
:1014E00014C0F6018385E80EF11C0E5F1F4FF1E07A
:1014F000073B1F07C9F660EA76E08AEC93E00E949A
:1015000081168CE896E00E94ED1C8D2FDF91CF9123
:101510001F910F91FF90EF90DF90CF9008951F9350
:10152000CF93DF93CDB7DEB763970FB6F894DEBFE6
:101530000FBECDBF60EC77E08AEC93E00E9481168D
:101540008AEA97E00E94ED1C10E00E94181B882395
:1015500021F0133021F01F5FF8CF133069F469E9EF
:1015600077E08AEC93E00E94811682E897E00E947F
:10157000ED1C0E94021B64C00E943D1ECE0101961C
:101580000E943F0A81112BC067E377E08AEC93E069
:101590000E9481168CE197E00E94ED1C6CEF76E0D2
:1015A0008AEC93E00E9481168FEE96E00E94ED1C7B
:1015B000609118037091190343E150E0CE01019648
:1015C0000E94971A8823F9F064EE76E08AEC93E0A3
:1015D0000E94811688ED96E00E94ED1C1DC061E717
:1015E00077E08AEC93E00E94811688E497E00E94FD
:1015F000ED1CFE013196CE01449620E32193E817BD
:10160000F907E1F7C1CF8091180390911903439630
:1016100090931903809318030E94EC1A0E94201ED5
:101620006BE077E08AEC93E00E94811687E097E018
:101630000E94ED1C64E670E080E090E00E94AF182C
:1016400063960FB6F894DEBF0FBECDBFDF91CF918A
:101650001F9108950F931F938091BD028530D0F4A0
:1016600062EF72E08AEC93E00E94811685EE92E0D0
:101670000E94ED1C00E010E098014AE050E060E0BC
:1016800070E08BE39EE00E94C8198091BD028F5FDD
:101690008093BD021F910F91089564E670E080E091
:1016A00090E00E94AF188AE194E00E94CB081816DF
:1016B00019063CF48AE194E00E94E3080E94E21CCF
:1016C000F2CF0895CF92DF92EF92FF920F931F9384
:1016D000CF938C016B017A01892BB1F061ED77E03A
:1016E0008AEC93E00E94811664EF71E08AEC93E04B
:1016F0000E94CE16B8018AEC93E00E94BA16B80197
:101700008AE194E00E94BA1668EF71E08AEC93E0F7
:101710000E94CE16C0E0E114F104D9F18AE194E010
:101720000E94CB08892B59F18AE194E00E94E308DA
:101730008C010E94E21C1127F601EC0FF11D808143
:10174000082E000C990B0817190749F0F601808143
:10175000082E000C990BC0E008171907F9F6CF5FA7
:10176000F601EC0FF11D80818111D8CF6BE772E09B
:101770008AEC93E00E94BA1680E090E012C061E02B
:1017800070E080E090E00E94AF18F1E0EF1AF108FD
:10179000C2CF6BE772E08AEC93E00E94BA1681E058
:1017A00090E0CF911F910F91FF90EF90DF90CF903D
:1017B00008958F929F92AF92BF92CF92DF92EF9255
:1017C000FF920F931F93CF93DF93CDB7DEB78C01BA
:1017D0007B015A01CDB6DEB6009719F00E944A226D
:1017E00002C08FEF9FEF01962DB73EB7281B390B34
:1017F0000FB6F8943EBF0FBE2DBF8DB79EB70196B2
:101800004C01E114F10421F0C7010E944A2202C0F8
:101810008FEF9FEF01962DB73EB7281B390B0FB600
:10182000F8943EBF0FBE2DBF8DB79EB70196E11451
:10183000F10429F0B7010E9443227C0102C0E12C8F
:10184000F12C0115110529F0B801C4010E944322B1
:1018500002C080E090E0A501B7010E94620B0FB6C4
:10186000F894DEBE0FBECDBEDF91CF911F910F91D8
:10187000FF90EF90DF90CF90BF90AF909F908F90B0
:101880000895CF93DF936FE278E08AEC93E00E94B3
:10189000811685E298E00E94ED1C40ED57E068E07B
:1018A00078E08AE198E00E94D90BEC01892B51F491
:1018B00060EB74E080E090E00E94AF180E944D0B56
:1018C0001092BE02CE01DF91CF9108951F93CF9366
:1018D000DF936CEF77E08AEC93E00E94811683EF50
:1018E00097E00E94ED1C60E082E00E94CC1768EE59
:1018F00073E080E090E00E94AF1861E082E00E9417
:10190000CC1764EF71E080E090E00E94AF181AE01D
:101910000E944D0B44E650E069EE77E080EF97E0DF
:101920000E94D90BEC01892B91F468EC70E080E007
:1019300090E00E94AF1844E650E06DED77E084EE51
:1019400097E00E94D90B81E08093BE0204C0115041
:10195000F9F6C1E0D0E0CE01DF91CF911F9108955B
:10196000CF92DF92EF92FF920F931F93CF93DF936B
:1019700000D000D000D0CDB7DEB78C01D62E64EEFB
:101980007BE08AEC93E00E94811687ED9BE00E9449
:10199000ED1C6BEC7BE08AEC93E00E9481168BEBF4
:1019A0009BE00E94ED1C0E94431D8091BE02882393
:1019B000C1F06FEA7BE08AEC93E00E94811682EA34
:1019C0009BE00E94ED1C66E97BE08AEC93E00E94BC
:1019D000811680E89BE00E94ED1C9CE3E92EF12C2F
:1019E00005C00E94660C892B21F35FC00E944D0B3D
:1019F00048EC50E06CE67BE086E79BE00E94D90B68
:101A0000892BC9F060E273E080E090E00E94AF189B
:101A100081E0E81AF10851F760E67BE08AEC93E098
:101A20000E9481168DE49BE00E94ED1C0E94410CF7
:101A300002E010E010C161E47BE08AEC93E00E94D8
:101A400081168BE29BE00E94ED1C68EE73E080E063
:101A500090E00E94AF180E944D0B6FE17BE08AEC92
:101A600093E00E9481168FE09BE00E94ED1C48EC01
:101A700050E069EE7AE080EF9AE00E94D90B892B62
:101A800051F448EC50E064EC7AE08BEC9AE00E9470
:101A9000D90B892B69F067E67AE08AEC93E00E9423
:101AA00081168FE49AE00E94ED1C01E010E0D3C0A3
:101AB00048EC50E065EA7AE08CEA9AE00E94D90BA3
:101AC000892B49F748EC50E067E87AE08EE89AE025
:101AD0000E94D90B892BF9F640E355E763E77AE0DA
:101AE0008AE79AE00E94D90B892BA9F60E944D0B38
:101AF00063E47AE08AEC93E00E9481168BE29AE03C
:101B00000E94ED1C48EC50E068E17AE08FE19AE039
:101B10000E94D90B892B51F448EC50E06DEF79E02D
:101B200084E09AE00E94D90B892B49F061EF79E0BB
:101B30008AEC93E00E94811681ED99E0B4CF81E0B8
:101B4000D81213C048EC50E067E779E08EE799E0DF
:101B50000E94D90B892BF9F06BE679E08AEC93E0CF
:101B60000E9481168BE499E09ECF82E0D81213C0C8
:101B700048EC50E068EF78E08FEF98E00E94D90BD6
:101B8000892B49F06CEE78E08AEC93E00E94811694
:101B90008CEC98E088CF0E944D0B60EC78E08AECEA
:101BA00093E00E94811686EA98E00E94ED1C69E9A4
:101BB00078E08AE194E00E9481160115110521F474
:101BC00080E389831A8222C01E8225E08AE0C82E23
:101BD000D12C2150E22EF12CE1E0F0E0EC0FFD1FC2
:101BE000EE0DFF1DC801B6010E948A22805D808330
:101BF0008B01672B71F7222349F0FE013196DF013B
:101C0000AE0DBF1D8C9181938111F9CFBE016F5F25
:101C10007F4F8AE194E00E94CE1648EE53E065E8DB
:101C200078E082E998E00E94D90B8C01892B49F079
:101C300069E778E08AEC93E00E9481168CE598E0F1
:101C400032CF60E578E08AEC93E00E9481168BE366
:101C500098E00E94ED1CC80126960FB6F894DEBFEE
:101C60000FBECDBFDF91CF911F910F91FF90EF90ED
:101C7000DF90CF900895BF92CF92DF92EF92FF92C4
:101C80000F931F93CF93DF93CDB7DEB7D2500FB62C
:101C9000F894DEBF0FBECDBF6AEC75E08AEC93E02E
:101CA0000E94811684EC95E00E94ED1C10E00E94D9
:101CB000181B882321F0133021F01F5FF8CF133059
:101CC00049F462EB75E08AEC93E00E9481168BE99F
:101CD00095E017C069E875E08AEC93E00E948116F0
:101CE0008AE795E00E94ED1C0E94D71A8C01892B8F
:101CF00059F468E675E08AEC93E00E9481168EE460
:101D000095E00E94ED1C0EC16CE375E08AEC93E057
:101D10000E94811689E295E00E94ED1C95E0F92E63
:101D200067E175E08AEC93E00E9481168CEF94E005
:101D30000E94ED1C62E0C8010E94B00C8130910548
:101D4000B1F46AEE74E08AEC93E00E9481168DEDA6
:101D500094E00E94ED1CFA94F110E2CF67EA74E07F
:101D60008AEC93E00E9481168AE894E084C002978E
:101D700049F46BEC74E08AEC93E00E94811689EBE5
:101D800094E06CC068E774E08AEC93E00E948116EE
:101D900087E694E00E94ED1C65E574E08AEC93E030
:101DA0000E94811689E394E00E94ED1C011582E0F7
:101DB000180708F065C07801B12C66E273E08AEC80
:101DC00093E00E9481168AE193E00E94ED1C0E943C
:101DD000D71A8E159F0508F057C00E94D71A6C01BC
:101DE0006091160370911703A601CE0101960E941F
:101DF0005C1A882309F44AC06FE073E08AEC93E030
:101E00000E94811684E093E00E94ED1C83E0B816E6
:101E100051F10E191F09B701CE0101960E94A41CB1
:101E20000115110509F0B8CF6FEF73E08AEC93E06C
:101E30000E94811680EF93E00E94ED1C15E080E087
:101E400090E00E948B1B82309105B9F56EED73E036
:101E50008AEC93E00E9481168DEC93E00E94ED1CC9
:101E60000E942A0B5FC067E274E08AEC93E00E9454
:101E7000811681E194E00E94ED1C0E942A0B50C063
:101E8000E12C82E0F82E98CF6701AACF809116034B
:101E9000909117038C0D9D1D90931703809316034B
:101EA000C114D10409F4B2CFCE14DF0409F4AECFCB
:101EB00083E0B816C1F2B39480CF0197C1F46BEB05
:101EC00073E08AEC93E00E94811684EA93E00E941A
:101ED000ED1C115009F0B3CF64E773E08AEC93E096
:101EE0000E94811688E593E00E94ED1C19C062E90A
:101EF00073E08AEC93E00E94811686E893E00E94EA
:101F0000ED1C66E473E08AEC93E00E94811681E3A5
:101F100093E00E94ED1C0E94EC1A1092BD0204C0D6
:101F20000E94591B0E94021BDE5F0FB6F894DEBFB1
:101F30000FBECDBFDF91CF911F910F91FF90EF901A
:101F4000DF90CF90BF9008958EBD00000DB407FEC6
:101F5000FDCF8EB508951F920F920FB60F921124E8
:101F60002F933F934F935F936F937F938F939F93A1
:101F7000AF93BF93EF93FF93E0912B03F0912C036A
:101F8000309709F451C0968DA685B785858591FF58
:101F900004C09C91892329F447C09C91892309F0AE
:101FA00043C0A389B4899C918589809589238C93AA
:101FB000868997890197F1F7608D718DA685B78520
:101FC000558538E020E0CB010197F1F7822F90E0B2
:101FD00095958795282F4C91452309F0206831501D
:101FE00091F7868D81FD209580912A0390E00196DE
:101FF0008F73992730912903381749F0A0912A034C
:10200000B0E0A358BD4F2C9380932A0303C0868D64
:102010008160868F828D938D0197F1F7A389B489B2
:102020009C918589892B8C93FF91EF91BF91AF9102
:102030009F918F917F916F915F914F913F912F91E0
:102040000F900FBE0F901F901895E0912B03F09109
:102050002C03E817F90769F4A389B4899C91858951
:10206000809589238C9310922C0310922B0381E08E
:10207000089580E008959FB7F89480911503882310
:1020800019F081508093150380911503811105C0CB
:102090008CB58F7B8CBD10927C029FBF08953F92C0
:1020A0004F925F926F927F928F929F92AF92BF9268
:1020B000CF92DF92EF92FF920F931F93CF93DF9314
:1020C000CDB7DEB7C257D1090FB6F894DEBF0FBE49
:1020D000CDBF0E943D1E64E271E08AEC93E00E9455
:1020E00081168EE091E00E94ED1C10E0BE016B595C
:1020F0007F4F84E891E00E940409F82E882389F03C
:10210000153011F01F5FF2CF6CED70E08AEC93E0B8
:102110000E9481168AEC90E00E94ED1CFF24FA9444
:102120000CC0153089F36DEF70E08AEC93E00E94EB
:1021300081168DEE90E00E94ED1CDE01AB59BF4F81
:102140008E010D5C1F4FC8010E96F801580120E367
:10215000F11003C03C91308301C020831196319669
:10216000E817F907A9F7CE0101960E943F0A8F0DE3
:10217000DE011196F8013E96780191E2E90EF11C1C
:1021800090E3811103C02C91208301C090831196AC
:102190003196EE15FF05A9F70E94201E6CEF71E045
:1021A0008AEC93E00E94CE1662E672E08AEC93E03D
:1021B0000E94CE16F80161918F0170E080E090E0FE
:1021C00040E10E94001D0E151F0571F76BE772E0DC
:1021D0008AEC93E00E94BA1663E172E08AEC93E025
:1021E0000E94BA160E94181BCE0101964C01FC01F8
:1021F00080E081938F5F8A30E1F74AE050E060E051
:1022000071E0CE018B599F4F0E945C1AFE01EB5981
:10221000FF4F7F018F01065F1F4F6F01C016D10670
:1022200081F062E672E08AEC93E00E94CE16F6013D
:1022300061916F0170E080E090E040E10E94001D3C
:10224000EDCF6BE772E08AEC93E00E94BA166BE385
:1022500071E08AEC93E00E94811685E391E00E9490
:10226000ED1C60E087E10E94CC1786E00E94A40F7D
:1022700061E087E10E94CC170E94F81D60E087E1D1
:102280000E94CC1787EC0E94A40F61E087E10E94B6
:10229000CC170E94F81D4AE050E060E071E0CE01EA
:1022A0008B599F4F0E945C1ACE018B599F4F6C0136
:1022B000312CC016D106B9F062E672E08AEC93E0E8
:1022C0000E94CE163601F60161916F0170E080E048
:1022D00090E040E10E94001DF30180818F3F49F3AF
:1022E00033243A94E6CF60E272E08AEC93E00E94F5
:1022F000CE164AE050E060E071E0CE0101960E9407
:10230000971A4AE050E060E071E0CE018B599F4F90
:102310000E945C1ACE0101963C01FE01EB59FF4F71
:102320006F01C016D106D1F062E672E08AEC93E04C
:102330000E94CE162601F60161916F0170E080E0E7
:1023400090E040E10E94001DF30181913F01F20104
:102350009081981731F333243A94E3CF66E372E027
:102360008AEC93E00E94CE16FE01319680E08193C4
:102370008E5F8431E1F74AE050E060E071E0CE0129
:1023800001960E94971A4AE050E060E071E0CE01A9
:102390008B599F4F0E945C1AE016F106D1F062E65D
:1023A00072E08AEC93E00E94CE166701F70161911A
:1023B0007F0170E080E090E040E10E94001DF401A8
:1023C00081914F01F6019081981731F333243A94AB
:1023D000E3CF6AE772E08AEC93E00E94CE160E9497
:1023E000EC1A65963FAE6597311009C06DEC72E04E
:1023F0008AEC93E00E9481168BEB92E008C063EABE
:1024000072E08AEC93E00E94811682E992E00E94D9
:10241000ED1C60E872E08AEC93E00E9481168AE786
:1024200092E00E94ED1C15E068E672E08AEC93E011
:102430000E9481168DE492E00E94ED1C61E082E230
:1024400090E00E94B00C01970297B8F46BE372E041
:102450008AEC93E00E9481168EE292E00E94ED1CCD
:10246000115011F76CE172E08AEC93E00E94811642
:102470008FEF91E00E94ED1C6AC06DEE71E08AEC76
:1024800093E00E9481168CED91E00E94ED1C62E2C7
:1024900070E0C5010E94A41C6AEC71E08AEC93E034
:1024A0000E9481168BEB91E00E94ED1C8E010F5F64
:1024B0001F4FF80180E38193EA15FB05E1F785E002
:1024C000F82ECE0101960E948B1B01970297D0F443
:1024D00069EA71E08AEC93E00E94811682E991E05A
:1024E0000E94ED1CFA94F110ECCF62E671E08AECE8
:1024F00093E00E94811686E491E00E94ED1C0E9408
:10250000591B25C060E871E08AEC93E00E948116B7
:1025100084E791E00E94ED1C6CE472E08AEC93E0A9
:102520000E94BA16F80161918F0170E06E597D4FDB
:102530008AEC93E00E94CE160A151B0599F769E70D
:1025400072E08AEC93E00E94A51680E001C08FEF54
:10255000CE58DF4F0FB6F894DEBF0FBECDBFDF9170
:10256000CF911F910F91FF90EF90DF90CF90BF9090
:10257000AF909F908F907F906F905F904F903F9023
:102580000895409111035091120320910F0330914F
:10259000100342175307B4F49091E8009570E1F3EB
:1025A0009091E80092FD19C08093F1008091110391
:1025B0009091120301968F739927892B19F48EEF4E
:1025C0008093E800809111039091120301969093FB
:1025D00012038093110381E0089580E00895DF9253
:1025E000EF92FF920F931F93CF93DF93D82E8A0120
:1025F0007B01E40EF51EEB01CE15DF0571F0D7FE71
:1026000003C0FE01849101C088810E94C1122196FD
:102610008111F2CF8FEF9FEF01C0C801DF91CF9101
:102620001F910F91FF90EF90DF900895CF92DF926E
:10263000EF92FF920F931F93CF93DF936C017A0178
:102640008B01C0E0D0E0CE15DF0589F0D8016D9197
:102650008D01D601ED91FC910190F081E02DC60134
:102660000995892B11F47E0102C02196ECCFC70198
:10267000DF91CF911F910F91FF90EF90DF90CF905E
:102680000895FC01918D828D981761F0828DDF0194
:10269000A80FB11D5D968C91928D9F5F9F73928F55
:1026A00090E008958FEF9FEF0895FC01918D828D4A
:1026B000981731F0828DE80FF11D858D90E0089517
:1026C0008FEF9FEF0895FC01918D228D892F90E06F
:1026D000805C9F4F821B91098F73992708958DE22B
:1026E00093E00E94631321E0892B09F420E0822FFC
:1026F0000895FC01848DDF01A80FB11DA35ABF4FBF
:102700002C91848D90E001968F739927848FA689F0
:10271000B7892C93A089B1898C9180648C93938D17
:10272000848D981306C00288F389E02D80818F7D07
:1027300080830895EF92FF920F931F93CF93DF93BF
:10274000EC0181E0888F9B8D8C8D981305C0E88902
:10275000F989808185FD24C0F62E0B8D10E00F5F76
:102760001F4F0F731127E02E8C8DE8120CC00FB68F
:1027700007FCFACFE889F989808185FFF5CFCE0182
:102780000E947913F1CF8B8DFE01E80FF11DE35A02
:10279000FF4FF0820B8FEA89FB898081806207C03E
:1027A000EE89FF896083E889F9898081806480836C
:1027B00081E090E0DF91CF911F910F91FF90EF901A
:1027C0000895CF93DF93EC01888D8823C9F0EA89BF
:1027D000FB89808185FD05C0A889B9898C9186FD1A
:1027E0000FC00FB607FCF5CF808185FFF2CFA88917
:1027F000B9898C9185FFEDCFCE010E947913E7CF87
:10280000DF91CF91089580E090E0892B29F00E941C
:102810006F1381110C94000008950F931F93CF93B1
:10282000DF931F92CDB7DEB782E0898342E450E0A8
:1028300068EE7DE080E80E94EF120E948E1EDC01AF
:1028400012960D911C9113970115110569F0D8018D
:10285000ED91FC910280F381E02DBE016F5F7F4F0F
:10286000C801099597FF07C089810F90DF91CF912B
:102870001F910F910895F80100851185E5CF1F92F2
:102880000F920FB60F921124CF92DF92EF92FF9228
:102890000F931F932F933F934F935F936F937F9368
:1028A0008F939F93AF93BF93EF93FF93CF93DF9358
:1028B000CDB7DEB76C97DEBFCDBF1092E900809137
:1028C000E80083FFFFC1FE017596DE2ECF2E88E063
:1028D0008E0F8E1729F09091F10090833196F9CFE9
:1028E00084E68093270382EF8093E8008D8987FF39
:1028F00005C09091E80090FFFCCF03C09EEF90933D
:10290000E800982F907609F0C5C09E892F89188D10
:1029100091110CC0803829F4809114038093F10048
:1029200002C01092F1001092F1004FC1422F50E00E
:10293000512B913051F4811148C14130510509F0BA
:1029400044C1809114038D7F0BC0933061F48111D9
:102950003CC14130510509F038C1809114038260B7
:102960008093140332C1953041F48091E80080FFD8
:10297000FCCF20682093E30028C1963009F05EC0A8
:10298000EB8CFC8C1092E900109212031092110350
:10299000123091F51092100310920F030E940D1443
:1029A00099E0BE016F5F7F4FDB01E92F1D92EA9531
:1029B000E9F799831A8391E09E8390EA98879AEFCA
:1029C00099872091110330911203275F3F4F3C8379
:1029D0002B838D831092E900109212031092110341
:1029E000F0921003E0920F0349E050E080E00E9473
:1029F000EF120E940D14E9C0F0921003E0920F0351
:102A00000E948E1EDC011296ED90FC901397E1144B
:102A1000F10409F4C7C0D701ED91FC910480F58160
:102A2000E02D6D2D7C2DC7010995009719F00CF054
:102A3000CCC0CFC0F701E084F184E9CF973009F42E
:102A4000C8C0983021F481E08093F100BEC0993075
:102A500009F0BBC0837009F0BCC0E8EBF1E081E095
:102A600021E036E39081992361F08093E90020937F
:102A7000EB0091919093EC003093ED008F5F8730E5
:102A800089F78EE78093EA001092EA008F8980939D
:102A900028039BC08B8D9C8D1092E900109212032D
:102AA000109211039093100380930F03898D81116D
:102AB0005FC08E899D89913A59F4813209F089C0AD
:102AC00047E050E064E071E080E00E94EF127DC0DA
:102AD000913209F07EC0833289F4888D90E0982F7E
:102AE00088272F89822BA0E0B0E08093000190938B
:102AF0000101A0930201B093030167C08032B1F4D9
:102B00008091E80082FFFCCFE4E0F1E087E08E0FE7
:102B10008E1729F09091F10090833196F9CF84E6D9
:102B2000809327038BEF8093E80006C0823209F080
:102B30004CC08F8980930B0180911303882319F077
:102B4000EEEFFAE002C0E0E0F8E08091040190913D
:102B50000501A0910601B0910701803B9440A105B9
:102B6000B10509F07AC080910B0180FF92C075C059
:102B70000E948E1EDC0112960D911C911397011577
:102B8000110539F1D801ED91FC910190F081E02D12
:102B90006D2D7C2DC8010995811117C0F8010085A4
:102BA0001185EDCF113009F44EC0133091F48F89A7
:102BB000882309F445C0823081F440E86CE089E460
:102BC0009EE00E940B1F882321F08EEF8093E80087
:102BD00079C081E28093EB0075C0813029F440E830
:102BE00068E080E49EE0EDCF833099F70E948E1E6E
:102BF000DC011296ED90FC9013978E010F5F1F4F32
:102C00006801E114F10479F0D701ED91FC9106809F
:102C1000F781E02DB801C7010995080F111DF701D3
:102C2000E084F184EECFD8011C92F60101900020DF
:102C3000E9F73197BF016C197D0940E0C601C1CFAA
:102C40006AE27EE002C06EE27EE06115710509F283
:102C5000FB01449150E080E838CF0FB6F894A89576
:102C600080916000886180936000109260000FBEC8
:102C7000A895EE3F2AE0F20739F08091FE0A909184
:102C8000FF0A91838083A1CF1092FF0A1092FE0A5F
:102C90009CCFEE3F8AE0F80731F0808191819093DC
:102CA000FF0A8093FE0A87E797E7918380839BE082
:102CB00088E10FB6F894A895809360000FBE9093BA
:102CC000600083CF6C960FB6F894DEBF0FBECDBF09
:102CD000DF91CF91FF91EF91BF91AF919F918F9134
:102CE0007F916F915F914F913F912F911F910F9124
:102CF000FF90EF90DF90CF900F900FBE0F901F903E
:102D00001895EF92FF920F931F93CF93DF938C014F
:102D10007B01C0E0D0E0F701EC0FFD1F649166235A
:102D200061F0D801ED91FC910190F081E02DC80196
:102D30000995892B11F02196EECFCE01DF91CF912D
:102D40001F910F91FF90EF9008956115710579F033
:102D5000FB0101900020E9F73197AF01461B570BAB
:102D6000DC01ED91FC910280F381E02D099480E07B
:102D700090E008950F931F93CF93DF93EC010E948F
:102D8000A5168C0169E772E0CE010E94A516800F9E
:102D9000911FDF91CF911F910F9108950C94A5166B
:102DA0001F920F920FB60F9211242F933F934F93C0
:102DB0005F936F937F938F939F93AF93BF93EF93A3
:102DC000FF938DE293E00E947913FF91EF91BF9101
:102DD000AF919F918F917F916F915F914F913F91B3
:102DE0002F910F900FBE0F901F9018951F920F926A
:102DF0000FB60F9211242F938F939F93EF93FF930E
:102E0000E0913D03F0913E038081E0914303F09116
:102E1000440382FD12C09081809146038F5F8F73BF
:102E200020914703821751F0E0914603F0E0E35D03
:102E3000FC4F958F8093460301C08081FF91EF91F5
:102E40009F918F912F910F900FBE0F901F9018950B
:102E5000CF93DF931F92CDB7DEB76983DC01ED918D
:102E6000FC910280F381E02D41E050E0BE016F5FF4
:102E70007F4F09950F90DF91CF91089583E0809364
:102E8000E9008091F200882319F08AE38093E8003A
:102E90000895FC018485958597FD0BC09FB7F89434
:102EA00082E08093E9008091F2009FBF90E001965C
:102EB00008959FB7F89482E08093E9008091F20032
:102EC0009FBF90E008953FB7F894809121039091BF
:102ED0002203A0912303B091240326B5A89B05C02B
:102EE0002F3F19F00196A11DB11D3FBFBA2FA92F89
:102EF000982F8827820F911DA11DB11DBC01CD0106
:102F000043E0660F771F881F991F4A95D1F70895F0
:102F1000CF93DF931F92CDB7DEB7FC0184859585F3
:102F200097FD05C02FEF3FEF358724870BC0CE01FB
:102F300001960E94651E019719F4898190E002C0F4
:102F40008FEF9FEF0F90DF91CF9108950F931F9315
:102F5000CF93DF931F92CDB7DEB78C01FC01848540
:102F6000958597FF0EC0CE0101960E94651E0197C0
:102F700019F4298130E002C02FEF3FEFF8013587C7
:102F80002487F801848595850F90DF91CF911F915B
:102F90000F9108950E94DA22362F90E0FC01E5514E
:102FA000F04F4491FC01EB5BFF4E2491FC01EA5D84
:102FB000FF4E8491882309F451C04423E1F150E08D
:102FC000FA013197EF30F105B0F5EA5AFF4F0C9452
:102FD000D422909180009F7707C0909180009F7DC0
:102FE00003C090918000977F9093800024C094B597
:102FF0009F7702C094B59F7D94BD1DC090919000B5
:103000009F7707C0909190009F7D03C090919000A2
:10301000977F909390000FC09091C0009F7703C05E
:103020009091C0009F7D9093C00005C09091C20018
:10303000977F9093C200E82FF0E0EE0FFF1FE65F4E
:10304000FF4EA591B4918FB7F894EC91311103C064
:1030500020952E2301C02E2B2C938FBF0895EF9225
:10306000FF920F931F93CF93DF937C01EB018A01B3
:1030700060E087E10E94CC1786E00E94A40F61E027
:1030800087E10E94CC170E94F81D811124C060E0E6
:1030900087E10E94CC1782E00E94A40F8D2F0E942E
:1030A000A40F8C2F0E94A40FE7010E0D1F1DC01747
:1030B000D10721F089910E94A40FF9CF61E087E147
:1030C0000E94CC170E94F81D91E0811101C090E090
:1030D000892F819501C08FEFDF91CF911F910F91C3
:1030E000FF90EF900895CF93DF9390E0FC01EB5BAE
:1030F000FF4E2491FC01EA5DFF4E8491882361F12B
:1031000090E0880F991FFC01E352F04FC591D491D4
:10311000FC01E65FFF4EA591B491611109C09FB714
:10312000F8948881209582238883EC912E230BC00C
:10313000623061F49FB7F8943881822F80958323A1
:103140008883EC912E2B2C939FBF06C08FB7F894E9
:10315000E8812E2B28838FBFDF91CF9108958F9226
:103160009F92AF92BF92CF92DF92EF92FF926B014C
:103170007C010E9463174B015C01C114D104E1047E
:10318000F104F1F00E946317DC01CB018819990961
:10319000AA09BB09883E9340A105B10570F321E05F
:1031A000C21AD108E108F10888EE880E83E0981E63
:1031B000A11CB11CC114D104E104F10419F7DDCF45
:1031C000FF90EF90DF90CF90BF90AF909F908F9047
:1031D00008957F928F929F92AF92BF92CF92DF928B
:1031E000EF92FF920F931F93CF93DF936C015B01DC
:1031F0007A0180910B01882309F469C0809128032A
:10320000882309F464C08091250380FF05C0809164
:10321000E00082608093E000E70110E00AEF83E0C5
:10322000982E90E4792E2AE3822E209709F447C045
:103230008FB7F8949092E9009091E80095FF06C04E
:103240009091F200272D291B922F01C090E08FBF93
:10325000911109C00150D9F161E070E080E090E087
:103260000E94AF18E2CF292F30E0C217D3070CF429
:103270009C2F8FB7F8949092E9002091E80025FFE9
:103280001CC0292F30E0C21BD30BF501915020F058
:1032900041914093F100FACFA20EB31E112319F011
:1032A0008092E80009C09091E80095FD06C08092E8
:1032B000E80011E0209709F010E08FBFB6CF1111A0
:1032C000B7CF84E6809326031E141F0444F081E0E8
:1032D00090E0F6019383828380E090E001C0C70113
:1032E000DF91CF911F910F91FF90EF90DF90CF90E2
:1032F000BF90AF909F908F907F9008951F920F92F4
:103300000FB60F9211242F933F938F939F93AF93F8
:10331000BF9380911A0390911B03A0911C03B0915D
:103320001D033091200326E0230F2D3720F4029651
:10333000A11DB11D05C029E8230F0396A11DB11DD4
:103340002093200380931A0390931B03A0931C03E4
:10335000B0931D038091210390912203A091230338
:10336000B09124030196A11DB11D80932103909378
:103370002203A0932303B0932403BF91AF919F91A5
:103380008F913F912F910F900FBE0F901F90189526
:103390008F929F92AF92BF92CF92DF92EF92FF9265
:1033A0000F931F93CF93DF93EC016A017B014801D8
:1033B000590160ED7FE08AEC93E00E94811687EC72
:1033C0009FE00E94ED1CF894EFEBF2E020E030E08B
:1033D000922F40815181452B99F48AE0829FF00120
:1033E000839FF00D1124E154FD4FD183C083C2822D
:1033F000D382E482F58286829782A086B18607C056
:103400002F5F3F4F3A962830310511F798E07894B6
:10341000983011F48FEF01C0892FDF91CF911F9168
:103420000F91FF90EF90DF90CF90BF90AF909F9063
:103430008F9008951F920F920FB60F9211242F9321
:103440004F935F936F937F938F939F93AF93BF93AC
:10345000EF93FF93AFEBB2E080E090E02AE04D9174
:103460005C911197452B99F0289FF001299FF00D51
:103470001124E154FD4F4281538164817581415093
:1034800051096109710942835383648375830196ED
:103490001A968830910519F7FF91EF91BF91AF917E
:1034A0009F918F917F916F915F914F912F910F908D
:1034B0000FBE0F901F901895CF92DF92FF920F933F
:1034C0001F93CF93DF9300D0CDB7DEB7F82ED62E63
:1034D0008A0160E087E179839A830E94CC1783E0B8
:1034E0000E94A40F7981872F0E94A40F8D2D0E9426
:1034F000A40FCF2C9A81D92E0C0D1D1DC016D106FC
:1035000039F08FEF0E94A40FF60181936F01F6CF7F
:1035100061E087E10E94CC170F900F90DF91CF916F
:103520001F910F91FF90DF90CF900C94F81DAF92F8
:10353000BF92CF92DF92EF92FF920F931F93CF93A0
:10354000DF937C018B01EA0180E8A82EB12C209743
:1035500011F1C8018F7799279C012C0F3D1F20384E
:10356000310578F06501C81AD90AA601B801C7016A
:103570000E942F18CC19DD090C0D1D1DEC0CFD1C33
:1035800007C0AE01B801C7010E942F18C0E0D0E00B
:103590008823E9F201C080E0DF91CF911F910F9164
:1035A000FF90EF90DF90CF90BF90AF9008956CEBBD
:1035B0007FE08AEC93E00E9481168CEA9FE00E94F3
:1035C000ED1C8091180390911903209116033091FE
:1035D0001703821B930B089561EA7FE08AEC93E066
:1035E0000E9481168DE99FE00E94ED1C80911603D8
:1035F0009091170390931F0380931E030E94F81D60
:103600000C943B1062E97FE08AEC93E00E94811603
:103610008CE89FE00E94ED1C80911E0390911F0397
:1036200090931703809316030E94F81D0C943B108F
:10363000CF9361E87FE08AEC93E00E9481168BE7EC
:103640009FE00E94ED1CCFB7F89480911503811183
:1036500027C0E7E3F0E18491E6E5F0E19491E82FFB
:10366000F0E0EE0FFF1FE352F04FA591B491EC9103
:10367000E92321F461E081E10E94CC1761E081E15E
:103680000E9473188CB580618CBD8CB580648CBD34
:1036900061E08FE00E94731861E080E10E9473187E
:1036A000809115038F5F80931503CFBFCF910C944A
:1036B000F81D6FE67FE08AEC93E00E94811689E6B0
:1036C0009FE00E94ED1C48EC50E06FE57FE086E64D
:1036D0009FE00E94D90B892BE1F060E087E00E9417
:1036E000CC1768EC70E080E090E00E94AF1861E0D9
:1036F00087E00E94CC1760ED77E080E090E00E94C8
:10370000AF180E94660C68EB7BE080E090E00E94BE
:10371000AF180C94410CDF92EF92FF920F931F931E
:10372000CF93DF93CDB7DEB768970FB6F894DEBFBF
:103730000FBECDBF63E57FE08AEC93E00E94811667
:1037400087E49FE00E94ED1C0E944D0B44EF51E086
:1037500060E37FE087E39FE00E94D90B892B71F043
:1037600064E27FE08AEC93E00E94811681E19FE0B1
:103770000E94ED1CEE24E394F12CD7C040E65AEEF3
:1037800061E07FE080E090E00E94D90B7C01892B12
:1037900069F065EF7EE08AEC93E00E9481168EED81
:1037A0009EE00E94ED1C0E94591BBCC062ED7EE0B1
:1037B0008AEC93E00E9481168AEB9EE00E94ED1C49
:1037C0008AE194E00E94CB08892B39F461E070E033
:1037D00080E090E00E94AF18F3CF8AE194E00E946D
:1037E000E3088D8B8AE194E00E94CB08892B39F4A1
:1037F00061E070E080E090E00E94AF18F3CF8AE1D2
:1038000094E00E94E3088E8B8AE194E00E94CB084A
:10381000892B39F461E070E080E090E00E94AF18FD
:10382000F3CF8AE194E00E94E3088F8B8AE194E071
:103830000E94E308888F6EEA7EE08AEC93E00E94A3
:10384000811661EA7EE08AEC93E00E948116BE0157
:103850006B5E7F4F8AEC93E00E94BA1600E010E0A6
:103860009AE0D92E8AE194E00E94CB08892BC9F016
:103870008AE194E00E94E30890ED980F9A3050F4AA
:10388000D09E9001D19E300D112489010053110961
:10389000080F111D61E070E080E090E00E94AF1819
:1038A000E1CF6BE572E08AEC93E00E94CE16B8019E
:1038B00080E090E04AE00E94001D69E772E08AEC37
:1038C00093E00E94A5160333110510F002E310E007
:1038D0001F930F9384E692E09F938F938E010F5F67
:1038E0001F4F1F930F930E94E82244EF51E065E7BA
:1038F00072E0C8010E94620B44EF51E06EE87EE086
:1039000085E99EE00E94D90B0E94410C0F900F9018
:103910000F900F900F900F908D89823319F48F893B
:10392000803319F082E0E82EF12CC70168960FB6BB
:10393000F894DEBF0FBECDBFDF91CF911F910F91E5
:10394000FF90EF90DF900895CF92DF92EF92FF9279
:103950007C016B0162E87EE08AEC93E00E948116B4
:1039600086E79EE00E94ED1CA601B7018AE194E083
:103970000E9416136AE67EE08AEC93E00E948116AC
:103980000D2C000CEE08FF08F7FE0CC08DE20E9423
:10399000E21C66277727CB016C197D098E099F09E8
:1039A0004AE003C04AE0C701B6010E94001D86E557
:1039B0009EE00E94ED1C80E090E0FF90EF90DF9091
:1039C000CF900895E091CA03F091CB030190F0816C
:1039D000E02D682F8AEC93E00994CF93DF93BC012C
:1039E0008AEC93E00E948116EC0169E772E08AECB0
:1039F00093E00E94A5168C0F9D1FDF91CF91089533
:103A00008F929F92AF92BF920F931F93CF93DF93AA
:103A1000CDB7DEB7A1970FB6F894DEBF0FBECDBF0E
:103A200019A2423008F44AE08E010F5D1F4F842E28
:103A3000912CA12CB12CA50194010E94B222E62F59
:103A4000B901CA0101501109EA3014F4E05D01C066
:103A5000E95CD801EC93232B242B252B61F7B801CB
:103A60008AEC93E00E94A516A1960FB6F894DEBFEB
:103A70000FBECDBFDF91CF911F910F91BF90AF903F
:103A80009F908F90089510923504109234041092F4
:103A900033041092320410923104109230048DECF1
:103AA00090E090933704809336048091260498EF39
:103AB000980F943048F022EF280F243028F026EE9B
:103AC000280F233008F060C025E530E03093310442
:103AD000209330042BEC30E03093330420933204F5
:103AE00020E930E03093350420933404943058F0CA
:103AF00092EF980F943038F08A51833008F46FC0F9
:103B0000A0E0B0E06EC0A8E6B0E0E8E6F0E08081BA
:103B100081608C938091260498EF980F943058F030
:103B200022EF280F243038F026EE280F233018F02B
:103B300020E030E002C02BE630E030932E042093EA
:103B40002D04943010F49CEF09C08E3071F08F304A
:103B500071F0803171F0813171F09AEE980F81E04F
:103B600001C0880F9A95EAF707C088E005C082E097
:103B700003C084E001C081E080932F04809136046B
:103B8000909137040197F1F78091340490913504B6
:103B9000892B69F180912B0390912C0324E08A31C9
:103BA000920729F1009711F00E94251080913804A6
:103BB0008E7F8093380410922A03109229038AE1A1
:103BC00094E090932C0380932B03E0912D04F091CB
:103BD0002E04908180912F04892B80830895A8E67C
:103BE000B0E0833008F491CFE0E0F0E090CF0895AA
:103BF0001F93CF93DF93C8EED3E060E087E10E948C
:103C0000CC1785E00E94A40F8FEF0E94A40F182FFD
:103C100061E087E10E94CC1710FD05C081E0CD2B4B
:103C200059F080E009C061E070E080E090E00E941F
:103C3000AF18219799F3E1CFDF91CF911F910895AC
:103C40008DE293E00E94E113EDE2F3E0A289B389F3
:103C50008C918F7E8C93A289B3898C91877F8C9372
:103C6000A289B3898C918F778C93A289B3898C9127
:103C70008F7D8C93828D818F0895EDE2F3E0A08992
:103C8000B18982E08C93A485B5851C92A685B78501
:103C900089E18C93108EA489B58986E08C93A289E2
:103CA000B3898C9180618C93A289B3898C9188604F
:103CB0008C93A289B3898C9180688C930288F38954
:103CC000E02D80818F7D80830895FC018091280301
:103CD000811103C08FEF9FEF08959FB7F89482E0A2
:103CE0008093E9002091F20030E01216130614F4DC
:103CF00021E030E02115310551F084E6809327035F
:103D00008091F10080838091F200882319F09FBF99
:103D1000C90108958BE68093E800F9CF80913D04B6
:103D200081110DC082E08093390484E080933A04CD
:103D300010923C0410923B0481E080933D0489E39F
:103D400094E008951F920F920FB60F9211248F9353
:103D50009F938091E1009091E100937F9093E10027
:103D600083FF0FC01092E90091E09093EB00109256
:103D7000EC0092E39093ED001092280398E090936A
:103D8000F00082FF1CC093E09093E9009091F20054
:103D9000992319F09AE39093E800909126039923D0
:103DA00029F0909126039150909326039091270338
:103DB000992329F09091270391509093270384FF32
:103DC00010C08091E2008E7E81608093E20080913D
:103DD000E1008F7E8093E100809125038E7E8061DB
:103DE00011C080FF11C08091E2008E7E80618093BF
:103DF000E2008091E1008E7E8093E10080912503B6
:103E00008E7E8160809325039F918F910F900FBECE
:103E10000F901F901895CF92DF92EF92FF920F9321
:103E20001F93CF93DF931F92CDB7DEB7182F062FC6
:103E3000E42E862F880F8E5F99830E94C11283E043
:103E40000E94C112F12EC12E9981D92E8C2D8F196D
:103E5000801798F4F601E7FE02C0849101C08081CA
:103E60000E94C112182F80E00E94C1128123FFEF2F
:103E7000CF1ADF0A8111EACF01C081E00F90DF91F4
:103E8000CF911F910F91FF90EF90DF90CF90089509
:103E9000789484B5826084BD84B5816084BD85B525
:103EA000826085BD85B5816085BD80916E00816031
:103EB00080936E00109281008091810082608093D7
:103EC00081008091810081608093810080918000D9
:103ED0008160809380008091910082608093910046
:103EE0008091910081608093910080919000816029
:103EF000809390008091C10084608093C100809184
:103F0000C10082608093C1008091C1008160809374
:103F1000C1008091C30081608093C3008091C00084
:103F200082608093C0008091C20081608093C20053
:103F300080917A00846080937A0080917A00826018
:103F400080937A0080917A008E7F80937A008091AE
:103F50007A00806880937A001092280310921403EC
:103F6000109225038091D70081608093D70080EA6A
:103F70008093D80089B58F7E89BD89B5826089BD5F
:103F800009B400FEFDCF61E070E080E090E00E94A7
:103F9000AF188091D8008F7C80618093D800809189
:103FA000E000807F8093E0008091E1008E7E80932E
:103FB000E1008DE08093E200EEEFFFE785919491C0
:103FC0008B3F9C4D19F481E0809313038FEF9FEF9B
:103FD0009093D7038093D603C0910B016AE070E001
:103FE00080E090E00E94AF18CC23B1F360ED7DE05B
:103FF0008AEC93E00E94811687EC9DE00E94ED1C04
:104000006FEA7DE08AEC93E00E94811685EA9DE0EC
:104010000E94ED1C62E17CE08AEC93E00E94811634
:104020008CE09CE00E94ED1C61E087E00E94CC17D0
:1040300061E087E00E94731861E082E00E94CC1783
:1040400061E082E00E94731860E07CE08AEC93E01B
:104050000E94811680EF9BE00E94ED1C0E94431D90
:104060000E94591B0E944D0B6DE87DE08AEC93E0A5
:104070000E9481168FE79DE00E94ED1C64E27CE0C7
:104080008AEC93E00E9481168EE19CE00E94ED1C78
:1040900061E087E10E94731861E087E10E94CC171C
:1040A00067E67DE08AEC93E00E94811688E59DE05A
:1040B0000E94ED1C65E37CE08AEC93E00E9481168F
:1040C0008FE29CE00E94ED1C60E47DE08AEC93E0CE
:1040D0000E94811680E39DE00E94ED1C6CE47CE070
:1040E0008AEC93E00E94811686E49CE00E94ED1C1D
:1040F0000E944F10882339F060E177E280E090E081
:104100000E94AF18F5CF68E17DE08AEC93E00E9451
:10411000811688E09DE00E94ED1C64E670E080E07E
:1041200090E00E94AF1864E67CE08AEC93E00E9485
:1041300081168EE59CE00E94ED1CEFEBF2E011820F
:1041400010823A9683E0EF30F807C9F7F894A89503
:1041500084B7877F84BF88E18093600086ED809379
:104160006000A895789460EF7CE08AEC93E00E9470
:1041700081168DED9CE00E94ED1C0AE010E020E02D
:1041800030E04AE050E060E070E08FE89AE00E94A2
:10419000C81965EC7CE08AEC93E00E94811682EB02
:1041A0009CE00E94ED1C0CE310E020E030E04CE3CA
:1041B00050E060E070E08BE39EE00E94C8196AE97D
:1041C0007CE08AEC93E00E94811687E89CE00E94E4
:1041D000ED1C64E670E080E090E00E94AF186AE7B2
:1041E0007CE08AEC93E00E94811681E79CE00E94CB
:1041F000ED1C8AE0B82ECC24CA94DC2CCFEBD2E0A4
:10420000E12CF12C288139812115310561F1BE9C09
:104210008001BF9C100D112401541D4FF8018281B3
:104220009381A481B581181619061A061B06DCF0C5
:10423000F9010995F8948E819F81A885B985181692
:1042400019061A061B060CF048C0F801428153817A
:1042500064817581840F951FA61FB71F8283938386
:10426000A483B5837894FFEFEF1AFF0A2A9628E01B
:10427000E216F10439F6809164008F6E8093640039
:104280008091650089688093650083B7817F83BFD3
:1042900083B7816083BF889583B78E7F83BF78940F
:1042A00080916400807180936400809165008677BE
:1042B00080936500D092D703C092D60361E08DE071
:1042C0000E94CC1761E070E080E090E00E94AF189F
:1042D00060E08DE00E94CC1791CF19821882C2CF86
:1042E00082EE91E090931B0480931A048AE194E09B
:1042F0000C9425101092300310922F0388EE93E057
:10430000A0E0B0E08093310390933203A093330395
:10431000B093340322EC31E030932E0320932D032D
:104320002DEC30E030933A03209339032CEC30E04D
:1043300030933C0320933B0328EC30E030933E0362
:1043400020933D0329EC30E03093400320933F035A
:104350002AEC30E030934203209341032EEC30E00E
:104360003093440320934303109246031092470373
:1043700010924803109249031092CD031092CC037F
:104380008093CE039093CF03A093D003B093D10337
:1043900022ED31E03093CB032093CA032FEF3FEFA0
:1043A0003093D7032093D60310921D0410921C045F
:1043B00080931E0490931F04A0932004B0932104C3
:1043C00082EE91E090931B0480931A0410923104C2
:1043D000109230041092330410923204109235047B
:1043E000109234041092370410923604609138040D
:1043F0006E7F6D7F609338046695617081E06827F9
:1044000089E00E94CC1761E089E00E947318EEE415
:10441000F0E1E491E0932A04EFE2F0E1E491F0E0CE
:10442000EE0FFF1FE65FFF4E8591949190932C0451
:1044300080932B0460E088E00E9473188091380418
:1044400081FD04C061E088E00E94CC1788E0809381
:104450002604EDE4F0E1E491E0932704EEE2F0E1DC
:10446000E491F0E0EE0FFF1FE85EFF4E859194911E
:10447000909329048093280480E58093450481E08B
:10448000809346040895FB01DC0105900D92002005
:10449000E1F70895FC0105900020E9F780959095DB
:1044A0008E0F9F1F08952F923F924F925F926F92AF
:1044B0007F928F929F92AF92BF92CF92DF92EF92B4
:1044C000FF920F931F93CF93DF93CDB7DEB7CA1B35
:1044D000DB0B0FB6F894DEBF0FBECDBF09942A8860
:1044E000398848885F846E847D848C849B84AA8408
:1044F000B984C884DF80EE80FD800C811B81AA8195
:10450000B981CE0FD11D0FB6F894DEBF0FBECDBF5F
:10451000ED010895AA1BBB1B51E107C0AA1FBB1FD9
:10452000A617B70710F0A61BB70B881F991F5A953F
:10453000A9F780959095BC01CD01089597FB072EB2
:1045400016F4009407D077FD09D00E948A2207FC58
:1045500005D03EF4909581959F4F08957095619593
:104560007F4F0895A1E21A2EAA1BBB1BFD010DC0AF
:10457000AA1FBB1FEE1FFF1FA217B307E407F50713
:1045800020F0A21BB30BE40BF50B661F771F881FEF
:10459000991F1A9469F760957095809590959B0185
:1045A000AC01BD01CF010895EE0FFF1F0590F491FE
:1045B000E02D099481E090E0F8940C948925FB01AA
:1045C000DC0102C001900D9241505040D8F708958F
:1045D000AEE0B0E0EEEEF2E20C9461220D891E89AD
:1045E00086E08C831A8309838FEF9FE79E838D83F8
:1045F000AE01475E5F4F6F89788DCE0101960E94B4
:104600000B232F813885F801E20FF31F10822E96BD
:10461000E4E00C947D22ACE0B0E0E1E1F3E20C9444
:1046200053227C016B018A01FC011782168283816F
:1046300081FFBDC1CE0101964C01F7019381F601C6
:1046400093FD859193FF81916F01882309F4ABC19C
:10465000853239F493FD859193FF81916F01853205
:1046600029F4B70190E00E94F324E7CF512C312CBC
:1046700020E02032A0F48B3269F030F4803259F01F
:10468000833269F420612CC08D3239F0803339F4E3
:10469000216026C02260246023C0286021C027FD3D
:1046A00027C030ED380F3A3078F426FF06C0FAE024
:1046B0005F9E300D1124532E13C08AE0389E300DBA
:1046C0001124332E20620CC08E3221F426FD6BC1E2
:1046D000206406C08C3611F4206802C0883641F48C
:1046E000F60193FD859193FF81916F018111C1CFF7
:1046F000982F9F7D9554933028F40C5F1F4FFFE354
:10470000F9830DC0833631F0833771F0833509F0BA
:104710005BC022C0F801808189830E5F1F4F442453
:104720004394512C540115C03801F2E06F0E711CF6
:10473000F801A080B18026FF03C0652D70E002C0A3
:104740006FEF7FEFC5012C870E94E8242C018301C5
:104750002C852F77222E17C03801F2E06F0E711CC6
:10476000F801A080B18026FF03C0652D70E002C073
:104770006FEF7FEFC5012C870E94DD242C012C8573
:104780002068222E830123FC1BC0832D90E0481655
:104790005906B0F4B70180E290E00E94F3243A9405
:1047A000F4CFF50127FC859127FE81915F01B701C8
:1047B00090E00E94F32431103A94F1E04F1A51082E
:1047C0004114510471F7E5C0843611F0893639F58A
:1047D000F80127FF07C060817181828193810C5F9E
:1047E0001F4F08C060817181072E000C880B990B48
:1047F0000E5F1F4F2F76722E97FF09C09095809500
:10480000709561957F4F8F4F9F4F2068722E2AE0E1
:1048100030E0A4010E942B25A82EA81844C085379B
:1048200029F42F7EB22E2AE030E025C0F22FF97F46
:10483000BF2E8F36C1F018F4883579F0B4C08037B8
:1048400019F0883721F0AFC02F2F2061B22EB4FEAF
:104850000DC08B2D8460B82E09C024FF0AC09F2F85
:104860009660B92E06C028E030E005C020E130E0B7
:1048700002C020E132E0F801B7FE07C0608171811B
:10488000828193810C5F1F4F06C06081718180E03F
:1048900090E00E5F1F4FA4010E942B25A82EA818A0
:1048A000FB2DFF777F2E76FE0BC0372D3E7FA514A4
:1048B00050F474FE0AC072FC08C0372D3E7E05C05D
:1048C000BA2C372D03C0BA2C01C0B52C34FF0DC053
:1048D000FE01EA0DF11D8081803311F4397E09C09B
:1048E00032FF06C0B394B39404C0832F867809F0D6
:1048F000B39433FD13C030FF06C05A2CB31418F420
:10490000530C5B18B32CB31468F4B70180E290E049
:104910003C870E94F324B3943C85F5CFB31410F484
:104920003B1801C0312C34FF12C0B70180E390E086
:104930003C870E94F3243C8532FF17C031FD03C041
:1049400088E790E002C088E590E0B7010CC0832FB3
:10495000867859F031FF02C08BE201C080E237FD5A
:104960008DE2B70190E00E94F324A51438F4B7015A
:1049700080E390E00E94F3245A94F7CFAA94F401C4
:10498000EA0DF11D8081B70190E00E94F324A1108F
:10499000F5CF332009F451CEB70180E290E00E94B8
:1049A000F3243A94F6CFF7018681978102C08FEF06
:1049B0009FEF2C96E2E10C946F22FC010590615070
:1049C00070400110D8F7809590958E0F9F1F089525
:1049D000FC016150704001900110D8F780959095CE
:1049E0008E0F9F1F08950F931F93CF93DF93FB01AB
:1049F000238121FD03C08FEF9FEF28C022FF16C047
:104A000046815781248135814217530744F4A081A0
:104A1000B1819D012F5F3F4F318320838C9326818D
:104A200037812F5F3F4F3783268310C0EB01092F5B
:104A3000182F0084F185E02D0995892BE1F68E81F0
:104A40009F8101969F838E83812F902FDF91CF913D
:104A50001F910F910895FA01AA27283051F12031B2
:104A600081F1E8946F936E7F6E5F7F4F8F4F9F4F02
:104A7000AF4FB1E03ED0B4E03CD0670F781F891F44
:104A80009A1FA11D680F791F8A1F911DA11D6A0F12
:104A9000711D811D911DA11D20D009F468943F91C5
:104AA0002AE0269F11243019305D3193DEF6CF01C4
:104AB0000895462F4770405D4193B3E00FD0C9F78A
:104AC000F6CF462F4F70405D4A3318F0495D31FDF7
:104AD0004052419302D0A9F7EACFB4E0A69597954A
:104AE000879577956795BA95C9F700976105710520
:104AF00008959B01AC010A2E06945795479537956A
:104B00002795BA95C9F7620F731F841F951FA01DC3
:104B1000089518E0C3E3D8E004C0FE010E94D42247
:0C4B20002196C433D107C9F7F894FFCFE9
:104B2C00FFFFFFFF00E100000000000008000A0288
:104B3C00D9000000050A070208000802480000001E
:104B4C00050A0702080009028C000000050A07028A
:104B5C0008003C025E000000050A070208003D0246
:104B6C009A000000050A070208003E02CF00000070
:104B7C00050A070208003F020B000000050A0702A5
:104B8C00060ED4000000000003080502060D3600D6
:104B9C000000000003080502060C6800000000007D
:104BAC000308050107010E9A000000000415060E0B
:104BBC0000000000000000000000000000000000E9
:104BCC00C56A2978016C016001540148013C01302F
:104BDC0001240118010C0100C180810000000000BB
:104BEC0000009A131613631341135513E1130000BD
:104BFC0000002817E91849178817A6173E17000058
:104C0C00000077081613CB08E3085E087608676F78
:104C1C0074203A003E3E3E003C3C3C0073616D709B
:104C2C006C696E67207465737420726573756C742F
:104C3C003A200053746F7261676520746573740059
:104C4C000A53746F72616765203A205772697465F4
:104C5C00203173740A000A53746F72616765203ACD
:104C6C0020577269746520326E640A00536572763F
:104C7C006572207265706C793A20006C656E677491
:104C8C00683A200041542B48545450524541443DFD
:0C4C9C00302C2575000D0A4F4B0D0A004E
:00000001FF
