:1020000000800020CD630000B5630000B5630000D0
:1020100000000000000000000000000000000000C0
:10202000000000000000000000000000B563000098
:102030000000000000000000B56300002164000003
:10204000B5630000B5630000B5630000DD6100000A
:10205000B5630000B5630000B5630000B96300001C
:10206000B563000001630000B5630000B5630000C4
:10207000B5630000B563000011630000B5630000A4
:10208000B5630000B5630000B5630000B5630000F0
:1020900000000000B5630000B5630000B5630000F8
:1020A000B5630000B5630000B5630000B5630000D0
:1020B0000000000010B5064C2378002B07D1054B1B
:1020C000002B02D0044800E000BF0123237010BDA4
:1020D0002001002000000000A09E000008B5084B71
:1020E000002B03D00748084900E000BF07480368F9
:1020F000002B03D0064B002B00D0984708BDC046EC
:1021000000000000A09E000024010020100100201B
:10211000000000007047000070B58EB001AE301CAA
:1021200003F0D2FD1A4C1B49201C04F089FC002549
:102130001949201C04F084FC715D201C102201351B
:1021400004F0FDFC212DF3D11449201C04F094FC73
:102150001349201C04F090FC03F02CFF6B4606335F
:10216000D8771049002805D1201C04F065FC201CFC
:102170000D4904E0201C04F05FFC0C49201C04F015
:1021800071FC301C222103F0B9FA0EB070BDC046BC
:10219000DC030020D48E0000D59800008E9D000046
:1021A000EB8E0000F88E0000108F0000228F0000E0
:1021B00070B54D4CE121201C490205F017F8201C98
:1021C00005F016F80028FAD0484D201C291C04F010
:1021D00033FC4749201C04F045FC03F09BF8002821
:1021E0000ED0291C201C04F027FC4249201C04F0BE
:1021F00039FC291C201C04F01FFC201C3E49EAE786
:10220000291C201C04F018FC3C49201C04F02AFC6A
:1022100003F08AFD291C201C04F00EFC3849201C08
:1022200004F020FC03F020FB291C201C04F004FC1B
:102230003449201C04F016FC03F04EFA291C201C23
:1022400004F0FAFB201C304904F00CFCFFF764FF9B
:1022500000280BD0291C201C04F0EEFB201C2B496D
:1022600004F000FC2A4804F021F9EFE7291C201CA7
:1022700004F0E2FB201C274904F0F4FB291C201C7D
:1022800004F0DAFB2449201C04F0ECFB642004F089
:102290000DF903F031FF291C201C04F0CDFB1F4E6B
:1022A000201C311C04F0DEFB3C210A1C1C4803F0FE
:1022B000ABFF291C201C04F0BFFB311C201C04F0C8
:1022C000D1FB78210A1C174803F09EFF291C201C13
:1022D00004F0B2FB1449201C04F0C4FB642004F099
:1022E000E5F803F0C7FF70BDDC030020F88E0000A6
:1022F000338F0000468F00005A8F00006D8F000062
:102300007B8F00008A8F00009A8F0000A28F000050
:1023100010270000A98F0000B88F0000C88F0000B0
:10232000915B00002D5C0000DB8F000030B5041CC9
:102330001034031CA34212D0051C0F35EDB2DAB2E3
:102340000021954200D059781A7849B25200D2B291
:10235000002901DA01210A431A700133EAE730BD8E
:10236000F0B50823061C85B00D1C141C9E43022EDC
:1023700005D0042E7DD0002E00D08BE060E0474ECB
:10238000184215D0301C0021102206F006FD002C4A
:1023900052D00023F21828781178013C4140117086
:1023A0005A1CD1B20135A4B20F2B06D1002C0ED08D
:1023B000301C3B4900F0EAF8E9E7131C002CE9D196
:1023C00073181978802252424A401A700124002161
:1023D0001022684606F0E1FC6846314900F0D6F864
:1023E000684607787F239F43FFF7A0FF002F05D0A3
:1023F0006946CA7B79235B425340CB73002C0FD0D4
:102400006A4614787F2368469C43FFF78FFF002CB1
:1024100006D06B46DA7B79235B4253406846C37330
:102420000023F2186946C85C1178013341401170ED
:10243000102BF6D10024BBE7301C00F0C3FC2AE0CF
:10244000A64227D2A8191649103600F09FF8F6B216
:10245000F6E70133002C08D02A78F95C013C4A40A9
:102460002A70A4B201350F2BF3D10C4EF37B01334C
:10247000F373002C0CD0094A6B4643CA43C312685D
:1024800068461A60064900F081F86F460023E3E7CA
:10249000201C00E0002005B0F0BDC046800A0020EE
:1024A000D009002070B50022910041180023074C8C
:1024B0000E78A418E55C01317540E5540433102B07
:1024C000F5D10132042AEFD170BDC0463C01002095
:1024D0000C4B59791A79197199795971D979DA713D
:1024E0009971997A1A7A1972D97A9A725A7A5972B2
:1024F000997BDA72DA7BD973597B9973197B1A73DA
:10250000597370473C01002073B500228C18247B5E
:1025100001ABD4540132042AF8D15C781A781C70CB
:102520009C785C70DC78DA709C7000229C5C0F26D2
:1025300025093440144E2D0175192C5D9C5401322F
:10254000042AF3D1012201280BD0151C7F2452004C
:10255000A543D2B2802D01D11B2462400138C0B204
:10256000F1E7187842401A70042000229D5C8C5CD0
:102570006C408C549C540132042AF7D10138C0B20B
:1025800004310028F1D173BDEE8F0000F0B50022B8
:102590008DB0061C90008019039000230398534CC3
:1025A000C05C9D00171901337855042BF6D1013218
:1025B000042AEFD10023CA5C08A81A540133102B57
:1025C000F9D1FFF76FFF0125231C0022995C0F2032
:1025D0000F09014046483F0184466744795C99549D
:1025E0000432102AF2D1434901338B42EDD1FFF777
:1025F0006FFF3E4B00229100595C1827BF186846B8
:1026000039544F0049B2FFB207A8002901DA1B2153
:102610004F4087540132042AEDD16946497E07AA0A
:102620000391039F117868464F400497807E694666
:102630000590C97E02915178029F41404F40049815
:10264000391C4140BC466F461970397E9078674608
:102650004F40474001901F710298039FD278784005
:10266000071C01984F40474057401F72059F049830
:1026700079404A4042401F491A7301338B42B9D115
:10268000281C08A90135FFF73FFFEDB208A8FFF7A6
:1026900009FF0A2D98D1201D221C0023D15C0F2791
:1026A0000D093940124F2D017D19695CD154043355
:1026B000102BF3D101328242EFD1FFF709FF0A203C
:1026C00008A9FFF721FF08A8FFF7ECFE0022900001
:1026D000301800239D001119495DC1540133042BAA
:1026E000F8D10132042AF2D10DB0F0BD3C01002036
:1026F000EE8F00004001002008B5044B011C587803
:10270000FF2801D004F0A4F808BDC04617940000CB
:1027100038B50A4B051C9C78FF2C0DD0201C012DD0
:1027200007D8012104F03AF8201C291C04F090F885
:1027300002E0002104F032F838BDC04617940000D2
:1027400010B5041C0748002C04D1074B06CB02F03F
:10275000B9FC01E002F0D2FC044B211C187804F013
:1027600077F810BD7C010020500100201794000074
:1027700008B5011C014802F0D3FC08BD7C01002013
:1027800038B503F061FE064A030F117808254B4067
:102790002B40CB18DBB2040918062043137038BD58
:1027A0004C01002010B5041CFFF7EAFF241AFA239D
:1027B0009B009C4205DD102003F078FE064BE418D8
:1027C000F5E7002C07DD240130206043032105F0EC
:1027D000A3FD0138FDD110BD18FCFFFF10B5041C8E
:1027E000FFF7CEFF201A431E1843C00F10BD000094
:1027F00072B6024B1A7801321A70704758010020E5
:10280000F8B5104A1378013BDBB21370002B18D1D6
:1028100062B600240C4BE6B2E318D878FF280DD03E
:102820000A4D675D04F044F8874207D0635D0122DA
:102830005340635502D0301C02F0A0FA0134032C3F
:10284000E8D1F8BD58010020179400004D01002088
:1028500070470000034B044A1A6000225A711A7133
:102860007047C046500100208096980070B50D4C0E
:10287000061C0D1C201C0C4904F0FEF8311C201C09
:1028800004F0DEF83A21201C04F0DEF8291C0A22AC
:10289000201C04F040F9201C04F026FCFFF7A8FFE0
:1028A000FEE7C046DC030020EE9000001D4B70B533
:1028B00018781C1CFF2802D11B48162104E0DE7882
:1028C000FF2E03D118481721FFF7D0FF1D79FF2DE8
:1028D00005D15B79FF2B02D113481821F4E70121C0
:1028E00003F05CFF6078FF2802D0012103F056FF5F
:1028F000A078FF2802D0012103F050FF301C0021F6
:1029000003F04CFFFF2D03D0281C002103F046FFED
:102910006079FF2802D0002103F040FF034802F055
:10292000A1FB70BD17940000F79000007C0100200F
:1029300070B5144C231CB43300229E5E002804D1D1
:10294000231CB6330022985E07E0231CB633002216
:102950009B5E46435843F611C0110B4B8900CD587E
:10296000231CB83300229B5E3622FF32A25C291C56
:102970005343C01805F01EFD05302074A8002D1A21
:10298000A81970BD900A002064910000084B4C22E9
:102990000021FF329954C62252009A5C0321103262
:1029A0009200D2588A439A60024ADA817047C04640
:1029B000900A0020831100001D4B0022181CB23029
:1029C00010B50270952040001A542A20FF301A5486
:1029D000932040001A54922040001A54972040003F
:1029E0001A549A2040001A54962040001A542E205F
:1029F000FF301A543820FF301A54181CAE300270C1
:102A00002620F424FF301C54191C3020FC31FF30E8
:102A10001A544A620A62074AC6204A638A649C22A0
:102A200005244000032152001C54995410BDC04697
:102A3000900A002008E6D333F8B5061C02F082F9AC
:102A4000041C02F07FF927020743BFB2094DBCB254
:102A5000AC4204DD201C291C05F0A2FC8CB2002E27
:102A600006D0F8B2311C05F09BFCC9B24D43641985
:102A7000201CF8BD24F4000010B5041C081CFFF74E
:102A8000DBFF0B4B20181A1CA3321278002A05D04A
:102A90001A1CA4321268821A002A08DD1A1CA432F9
:102AA0001060AC331988802252000A431A8010BD8E
:102AB000900A0020F7B51B4B92001B4CD6580523FB
:102AC0002374231C0191BA331A88051C002A19D0DB
:102AD0000023C11705F014FDCB179C466746BAB218
:102AE000002312184B411B04100C1843FA237343A4
:102AF000834202DAFF23237404E0311C05F05AFC00
:102B0000053020742368201CED18F300ED18237C99
:102B100014305E43AE1B311C7D39019A666001F0B2
:102B20009DFEF7BD64910000900A002008B5034A9D
:102B3000034B0220DA6102F0ADF908BDA13F0000AD
:102B4000900A002008B5034A034B0220DA6102F024
:102B5000A1F908BD79440000900A002008B54A2276
:102B6000084B0121FF329954D989802291430A43AD
:102B7000DA814C220021FF32D8610220995402F000
:102B800089F908BD900A002008B50248FFF7E6FF62
:102B900008BDC0461146000008B50248FFF7DEFF39
:102BA00008BDC0460544000008B54A220C4B02206F
:102BB000FF3298543022FF329A5C0A498A185178C1
:102BC000802291430A43DA811A1CFC32526B0021A5
:102BD0009A604C22FF32995402F05CF908BDC0465D
:102BE000900A00201092000008B5034A034BDA61F6
:102BF000FFF7DAFF08BDC04651460000900A0020EA
:102C000008B5034A034BDA61FFF7CEFF08BDC046A3
:102C10003D440000900A002010B51B4C231CFC33DF
:102C2000DB69002B04D0231CAC331B885A0703D567
:102C300016481749FFF71AFE221CAC3211884023B0
:102C40000B401FD1CD20400023549220400023543C
:102C5000A420400023548123994301231943118068
:102C6000FFF794FE01F0BCFD0A4B0B4AC118CA23C2
:102C7000201C5B001430E150616001F0EFFD032087
:102C800002F008F910BDC046900A002084910000AF
:102C9000E506000024067B00FD3E000070B52B4CCD
:102CA000051C0021201C402206F077F8201C002182
:102CB0002022403006F071F8201C2022203800210C
:102CC00006F06BF86034072323806B425D410322DA
:102CD0006D422A400023D5181D48EDB21D4CAD00B1
:102CE00099002D5809190D645900091980313F20A8
:102CF00001330880032BEED1FA239B000E26238498
:102D0000E31CDE7702F01EF80F252840231DD8773C
:102D100064232385231C2A331E7002F013F8231C1E
:102D200028402B3318700A232386231C1B2232339E
:102D30001A7002F007F8231C054033331D7001F0B0
:102D40004FFD6063E062606270BDC046D00A002043
:102D5000F8910000900A00200A1C094B803202D032
:102D60001A1CAF3211701A1CB0321178814206D091
:102D70001070AC331988802212010A431A80704700
:102D8000900A00204278837812021B041A430378C9
:102D90001A43C378101C1B061843704708B5013846
:102DA000FFF7F0FF6423000A5843044B0449C2189C
:102DB000002391425B415B42184008BD40AA8FCC82
:102DC000C0CF6A008278437812021B041A43C3788A
:102DD0001A430378101C1B06184370470B0A017036
:102DE00043700B0C090E8370C1707047F7B5134C1C
:102DF00010250E1C00900192201C2A1C00211F1C73
:102E000005F0CBFF0123E37323707B1E9F41311C30
:102E10006771A01DFFF7E2FF201C01990A30FFF740
:102E2000DDFF2A1C0099064805F0AEFF099B0899B2
:102E30009AB20420FFF794FAF7BDC046800A00203A
:102E4000D0090020F8B510273A1C0021214805F0D0
:102E5000A4FF214D214900266C182E606E60A96CDC
:102E60001F48FFF7BBFF281F583DE969FFF7B6FF72
:102E7000301C3A1C1A49FFF773FACA225200A258B2
:102E800018493A2352184E21FF31675CA6214900A8
:102E9000615CFF33E35C3F020F4313480721C91A0B
:102EA0000841124907404F430120D7199D22520083
:102EB00098409C232F64A6545B000230E15CC0B2B2
:102EC000FFF736FD3F1A6F64227C3C23FF33E25448
:102ED000F8BDC046D0090020E40B0020ACFEFFFF87
:102EE000DC0B002094050200FF0F000053070000D8
:102EF000F8B5154C154B251CAC352A88071C1A4013
:102F0000134B0E1C9A4206D1FFF79CFF2A888023A0
:102F10009B0013432B80237C072B0ED12368201C9E
:102F2000FF183B1C0A3B391C6360143008238739A7
:102F3000321C237401F092FC04E0627C381C311CCA
:102F4000FFF7B8FDF8BDC046900A00200206000059
:102F50000204000008B5054A2823FF33D35C044867
:102F600004495843FFF7C4FF08BDC046900A00203B
:102F700024F40000892B000008B502480249FFF73D
:102F8000B7FF08BDB4C40400992B00000B0AC17040
:102F900083700B0C090E43700170704730B5031C31
:102FA000411800208B4211D01A781202504008229A
:102FB00005B24400A0B2002D02DA05484440A0B298
:102FC000013AD2B2002AF3D10133EBE730BDC0465B
:102FD00021100000F8B5384C4C23FF33E35C112B73
:102FE00003D036483649FFF741FCA621490067184F
:102FF0005423FF33381C0721E55CFFF7CFFFC0B235
:103000000023854256D1381CFFF7BCFE231CA83391
:103010001B680002000A98424AD1CD256D00665D0A
:1030200003239E436655627B9A23FF33E254227B3F
:10303000CC235B00E2546168224BCA185021FF3157
:10304000CA235B006018E250FFF79CFECE235B00B2
:10305000E05001233343381C0F216355FFF79EFFD7
:10306000AE235B00E25C5C23FF33E35C12021A4395
:10307000012382421ED1AA235B00E018FFF782FEE3
:10308000D22358215B000012FF31E0506018FFF797
:1030900079FED4235B000012E050AA235B00E25CBF
:1030A000D0235B00E25403231E436655022301E054
:1030B00001235B42181CF8BD900A00208491000097
:1030C000D5030000C0DCFFFF0722032302405A4360
:1030D0000349D84003408A18D05C8D387047C046F9
:1030E0004E910000F8B50725041C054003D10B31B3
:1030F0000A2048433DE0AB1D2206C8009B00D20FCA
:103100000427C01A51424A411201AF42BF411C304C
:103110007F4280180022FF00260A964200D0142227
:10312000801A00280BDDD91BC9B24018013805F000
:1031300041F963069B0F05334343083300E008233E
:10314000E4060135A40F98002D1B0A4BEDB2313077
:10315000191C042D03D9291F0B41191C0425A84053
:10316000051C0548CA0F684352185210801805F014
:1031700021F9F8BD093D000024F4000030B5041C1D
:1031800000200F2C2DD85D1C12D1164BC818164BE1
:10319000984201D802230FE0144D154B481998426C
:1031A00004D9144BC818144B984206D8012303E0E5
:1031B000032B16DC032081431943201C0F4B1030D6
:1031C0008000C150002A00D13F22211C403149001B
:1031D00001205A52051CA0331A88A5402C1C144308
:1031E0001C8030BD40022ECC90D00300005F43CC49
:1031F000C0270900606E29CCE0930400900A0020EB
:10320000F0B54C22C34CFF32A623A55C5B008DB009
:10321000E35C0B2D05DCBF4B4C210020FF315854E3
:1032200059E29A07F7D11F221F1C9743602F01D044
:10323000A02FF0D15223FF33E35C09934E23FF33D9
:10324000E018FFF79FFDA9235B00E15C5423FF33E7
:10325000E25C231CFC33DB6907909842DBD1099EBA
:103260000F231E400A96043D083604960595AE428B
:10327000D1DCB54208DDA3194933FF330A9E1B791F
:1032800009360893049602E001235B420893261C4A
:10329000FC36336A12020A43D21A9F4D92B2D218F8
:1032A0000692281C1022002105F077FD49230120F9
:1032B0002B7068710599A81DC9B20B91E973079924
:1032C000FFF78CFD281C0A300699FFF787FD211CAB
:1032D000F6311022914805F057FD059BA6225200B9
:1032E000A11802209AB2FFF73BF80599051C601857
:1032F0004D30FF30FFF766FD85428CD1336A069A68
:103300009A420FD287DC013B9A4284D192235B0020
:10331000E35C002B00D17EE7A02F00D07BE70126E5
:1033200007960CE0069B3A1C0133A03A33625342E5
:103330005A41922352015B000027E25407979223DF
:103340005B00E25C734B002A02D1099EF60605D5AC
:103350001A1CAC321188102001431180191C002264
:10336000B2310A70932149005A542622FF329956ED
:10337000803101D0F4219954664CE089FFF7A4FE16
:103380000C23E356403B181A04D4FE2800DDFE202F
:10339000C0B200E0002094235B00E05400240A9FA8
:1033A000BC4200DB48E15E4D285D0238102800D9A0
:1033B00042E104F0A7FF1100130094006E006700C3
:1033C000BF00410141014101410141014101410170
:1033D00041014101EF00FE000334E0E7514A524849
:1033E00013195F78D11C0E5D2A2101330397FF3139
:1033F00017188720155D5B7878540F27301C05342B
:10340000B84300D063E1039F1B023B4300D15EE160
:10341000B53A1288181C9043021E00D057E11F1CB9
:1034200001201741074208D09700BC46394F674436
:103430003F6C002F01D1904083430132102AEED11E
:10344000344AA0321380394B28091B185A78314B63
:10345000FF2A03D15A5C0227BA435A54595C7F228F
:103460000A40072A08D10F22AE3316401E70304B97
:1034700015405957FFF770FC01219323254A8B40D3
:10348000D1548CE701219523224A8B40D1546418F2
:1034900085E7244D0F232E5D281901301E40563D2F
:1034A000FFF77CFC9A228023FF3D5200AB541F4B58
:1034B0009B195B78FF2B01D08223AB54154B00285E
:1034C00003D0995C0125294399549A5C832A04D13D
:1034D0003022FF329E54FC33586305345FE7114AB3
:1034E000135DFF2B04D1A93A1188402001431180BC
:1034F000084D0F2213402A1CA332137001F070F9FB
:103500002B1CA43318602E230122FF33EA5402340B
:1035100045E7C046900A0020800A0020D00900201C
:10352000E40B0020E50B0020ABFEFFFF1092000033
:10353000DB910000694E9725375D30190130039704
:10354000FFF72CFC331D1B5D563E0293FF3E6D00C2
:103550008023011C73551BD0029803090F20C31A46
:103560009C465F4B67461A1C3A419446029A0240B9
:1035700093401A1C60460240012392B203985B42BA
:10358000FFF7FCFD002803D0735D0322134373553E
:10359000063404E7601C2818FFF700FC802300288D
:1035A00002D0583DA864812338224E49FF328B5403
:1035B00040E04C4B02201A1CAC321188014239D138
:1035C0005826FF369D192E5D0143C62511806D00DA
:1035D0009B225E5552009B5C002B03D1424843491D
:1035E000FFF744F9424A611C8918487809780002BB
:1035F00008434049404F4843D31959683F4E40184B
:10360000CA21851949005D500021151C9C3A118082
:103610003622FF329954A03DCD22520029800C2140
:1036200099548E22FF3213219954D738C822FF387B
:10363000520098500434B2E6079E2A4C002E1AD14C
:10364000089F013717D0059E049FF51B002D12DD42
:10365000089EE01DFF30002E00D11038231C049F6F
:10366000FC33D969E3194D33FF3300930195069A72
:103670000123FFF7BBFBA4235B00E25C4A23FF337B
:10368000002A07D0099EE15C4022B60600D58022C0
:103690000A43E254089FA5225200E15C013709D198
:1036A00020200143049E4C27E154FF370023A654F9
:1036B000E3550AE01020049E01430B9FE1544C2087
:1036C000F3B2A354FF30FB1A2354012003E0054B4F
:1036D00086225A54B7E60DB0F0BDC046E50B002077
:1036E000FFFF0000900A002084910000D104000038
:1036F000E40B002053070000ACFEFFFFAAF185FF9A
:1037000038B5274C0020231CFC33DB69834245D1AC
:10371000231CAC331A8890231A4203D02148224933
:10372000FFF7A4F8221C0023A332251C1370AC352C
:1037300029881E4A0A402A80A4225200A354221C2F
:10374000B232137001F0FEFA032104F029FE231CAB
:10375000A2331970231CAF330E221A70231CB0330E
:10376000052201201A70FFF799FA2B881A0503D554
:103770000C480F49FFF77AF80820656AFFF75CF9F3
:10378000231C2D18AC3325601A880421201C0A4301
:10379000143008491A8001F047F8012038BDC046AE
:1037A000900A0020849100002B070000DEE7FFFF55
:1037B000AE02000067440000F0B5904BC1211A1C16
:1037C000AC3212888BB01C1C0A4200D079E3FC3367
:1037D000DB69002B04D1500702D4FFF791FF70E39F
:1037E00000F0FEFF231C0790AC331B8800250495D6
:1037F0009E070FD5C8235B00021CE0587D32121AC9
:103800001D1C002A03DD7E487E49FFF72FF863590F
:103810007D3B0493231CAC331E883C23334000D1F2
:10382000C6E2242333405A1E9341DBB2059331058F
:1038300060D5231CA0331B8801210693231CB033C1
:103840001A780F231A40914008919C46079D6E48B4
:1038500000232F181A1C61461941D8B2CD0708D58C
:103860006649DD006918496A7D1A002D01DD021CD8
:103870000F1C0133042BEED16049131DDB00CB1864
:103880001020D97803904B1CDBB20F2B02D90B1CF4
:103890000F3BDBB206991941CD0716D51D1C5749C0
:1038A00040356D006D5A089828420ED01D1C103509
:1038B000AD006D5803202840824206D10432D20068
:1038C0008A18A231D3700B700DE003980138C0B292
:1038D0000390002801D0191CD5E7012361469340CD
:1038E00099438C46B2D1454B484A1F603240AC33B5
:1038F0001A8000E02768414B1A1CA3321278002A74
:1039000004D11A1CAC321288D50505D51A1CA43274
:103910001268B91A00D5171C1A1CAC321288022181
:10392000114011D0059E002E01D0394800E03948E1
:10393000049D3818401B002806DD374E1021A819B9
:10394000FFF79AF8002737E2079D781B7D2800D4FF
:103950001AE2191CB0310978059E0491002E43D05B
:103960000021900610D5B2331B78013BDBB2FF2B50
:1039700009D02A4A049D525DFF2AF6D02A1C013A3A
:10398000D2B20492F1E7C021A6234E265B00FF3697
:10399000E154A01901F024FC5621FF31251C6018C8
:1039A000F43501F025FC2B885E22FF32A354AF22B0
:1039B0001B0A5200A3541A4801F022FCA62252000E
:1039C000A1180A201322FEF7CBFC6023FF33011C51
:1039D000E018FFF7DBFA4C23FF331722E2542B8861
:1039E00001332B800F4B92E1191CFC310D6A81359C
:1039F0001ED90D480D4900F017FF62E2900A002021
:103A000084910000FA07000000D2496BFFF7FFFF26
:103A100044950800D8B805009405020010920000F3
:103A2000D0090020792F0000A40A002039470000A7
:103A3000A4204000185C002802D1496A0131D8D086
:103A4000182111401039481E8141C9B20027069142
:103A5000B94202D0191CBE310F78CE4908240A4061
:103A60008A420FD1AA221021520099543A22FF32E1
:103A7000995C9C2252009A5C090111435622FF3244
:103A800099540A242E22FF32995C002907D0191973
:103A90004931FF31042008710021013499549A22E0
:103AA0005200995C00290DD0A426181976008519BA
:103AB00005262E714A3003252940FF30017100216F
:103AC00002349954952149005A5C002A13D0A42548
:103AD0001A196D004A265019FF36062505719019EE
:103AE000FF25057194204000185C4B32FF321071A5
:103AF000002203345A54A84B2A22FF32995C002931
:103B00000DD0A42618197600851903262E714A3087
:103B100007252940FF3001710021023499549B226E
:103B200052009A5C002A05D01A194932FF3212213C
:103B30001171013493225200985C111C2622FF322D
:103B4000002806D0985C7F2801D9002098540020D6
:103B500058543821FF31585C00280FD0A4261D1975
:103B60007600AE19112131714A350126FF353040FA
:103B7000287138250020FF350234585597267600E5
:103B8000985D00280FD0A4211D1949006918072647
:103B90000E714A3503263040FF35972128714900C0
:103BA000002002345854069DE3B20421002D01D0B8
:103BB000791DC9B2C918C9B20591402904D9191D86
:103BC000C9B2002605910696734DA62140204900F2
:103BD00068542C21FF31685C92214900695C7F2682
:103BE0000143A85C002286425241083B92010B43EC
:103BF00052211343FF316B542E1C4E21FF31FC36F2
:103C00006818F169FFF7EAF8A4235B00EB5C002B6E
:103C100002D1726A013272625F4DA9212A1CFC3204
:103C2000526A4900013A92B26A545421120AFF3191
:103C30006A54069E922200215200A9548E4231D02D
:103C40002A1CBD3212788A4209D0A6228021520055
:103C5000A954002B03D10122A4239340EA542E1C23
:103C60002B19BC362C19327849334E34FF33FF34CC
:103C7000291C1A71BF31201C3A1C05F085F83378D5
:103C8000E81DFF30002B01D1281CF630424BFC33DD
:103C9000D9695A6A002F05D0013A00940197002390
:103CA000FFF7A4F83C4C3D4D231CFC335E6A102208
:103CB000013E0696281C059E0021DF6905F06DF87F
:103CC00049232B70043E00236B71A81DEE73391C31
:103CD000FFF784F8281C0A300699FFF77FF8211CAB
:103CE000F63110222E4805F04FF8A620400021188A
:103CF000B2B20220FEF734FB059D011C6019493069
:103D0000FF30FFF743F94C23FF33E554254BE361C4
:103D1000049E254B204C9B19587860239843231C04
:103D2000B1331B7866745B011843231CE081AC330C
:103D300019881E4A0A40882109010A431A80231C57
:103D4000A2331B7810339B001D594C23FF33E15CD9
:103D5000FFF7C8F903222B1C13400433954393400B
:103D60001B19A5609A78079DA2741A884243AA1865
:103D70005A60231CA3331B78002B03D09840A43433
:103D80002B182360012064E000296DD0002F13D18F
:103D9000012711E002040000900A0020800A0020A0
:103DA000D0090020552F0000109200006FF6FFFF91
:103DB000B00700D485E01F1C434BAC331B8899052A
:103DC00030D5079D7D3505953F4C059E251CFC355E
:103DD0006A6C231C911B43D59D225200A35C59B2EF
:103DE00000291FDB3A21FF31615C01208840C0B20D
:103DF000C318DBB2A3545AB2002A13DB334E02308D
:103E00005E43296C18189C235B00F6117618C0B22B
:103E1000E15CFEF78DFD361A6E64227C3C23FF3395
:103E2000E254D1E7002F02D0049EBB1B1CD4FEF746
:103E3000ADFD25488E23FF33C35C079D0374C82363
:103E40005B00C358049E4360AB1B05D4204BC36189
:103E5000022001F01FF834E0143004991D4A07E0F5
:103E6000002F08D0B91A06D5391C1B481B4A7D39CA
:103E700000F0F4FC25E03C21FF31595C5A601974D4
:103E8000191CFC31896C164899609C214900595CC9
:103E9000079D41184878802188430143D9814C21EE
:103EA0000020FF31521B58547D3203DA0D480E4971
:103EB000FEF7DCFC08480D4A031C143B59687D39A9
:103EC000D6E70BB0F0BDC046900A00200030750068
:103ED000A13F00002D2B0000A40A00207144000027
:103EE000109200008491000065080000452B00003E
:103EF00008B501F08DF9FFF75FFC08BD70B5002033
:103F000000F0C8FF234D4C262C1C281C143CFF3607
:103F100000F06AFCA35D002B06D198352B880322A4
:103F200093432B80012032E0FFF754F8002398429E
:103F30000BDC0320A35500F0ADFFCA235B00E15862
:103F4000281C154A00F08AFC23E02A1CA0321380AA
:103F50002A1CA43213803622FF32A354CD235B00E7
:103F6000E25C0C210A43E2548E230B22FF33E2541D
:103F7000CA235B00E258094B9835D218C8235B006E
:103F8000E2502B8801229343022003432B80FFF74A
:103F9000AFFF70BDA40A0020FD3E000080107A0033
:103FA000F7B55B4CCA256D006759CD2300975B00C0
:103FB000E35C8E2601934C23FF33E35C2F1CFF361A
:103FC000002B5FD0FFF706F800285BDD019FBF07DD
:103FD00009D10B236259A3554E4B0425D218C8238F
:103FE0005B00E25089E06359009F90223625520120
:103FF000FF35B818615DC01A80B200290AD0231CB1
:10400000B4331F8800B23BB2C01A013104F0D2F9B8
:10401000C01980B2CD235B00E25C53071AD4231C85
:10402000B4331988091A89B28BB21FB2002F01DA92
:104030004B429BB2211CB6310B80211CB8310027AA
:10404000CD5F1FB2BD4200DA0B8008239A43CD2317
:104050005B00E254231CB433221C1880B2320023CC
:1040600013703622FF32A354CD225200A35C0425E4
:10407000191CA943A1549F0730D127482749FEF7AF
:10408000F5FB2BE0231CB43300229B5E244836252D
:10409000C01AE359FF35C018CE235B00E258E05147
:1040A0008032E250635D1F4F0133C0190421635514
:1040B000FEF7E2FC635D142B05D9231CAC331A8890
:1040C00020210A431A80A35D0325642B06D9AC3452
:1040D0002288154B0B201340238015E0CA235B0078
:1040E000E7580F4A00200321BF18FEF721FCC82320
:1040F0005B003F1AE750237CA355AC3423889F050F
:1041000001D5FEF79FFE281CFFF7F2FEF7BDC04663
:10411000900A002080107A0084910000B607000009
:1041200000127A0094050200DDF9FFFFF7B5A64CF6
:10413000231CFC33DA6CA54B1A4080235B009A42A7
:1041400003D1A348A349FEF791FB231CAC331B8882
:104150001A0603D49E48A049FEF788FB4C23FF3380
:10416000E65C002E5FD1231CAC331A88530714D4AD
:10417000930604D4B2219648C900FEF777FB231CAE
:10418000AC331A88A0218A431A80B2342378092BD1
:1041900001D801332370092012E1231CA2331978BE
:1041A0000131C9B2032900D100211970A4214900AD
:1041B000635C00250133DBB2635401210B420FD154
:1041C000231CB0331B780D1C002B09D08349C95C1C
:1041D000FF2901D0013BDBB2211CB0310B7000255F
:1041E0007F4B1A40231CAC331A8000F0F9FA666A40
:1041F000831B00D4061C231CB0331B78FF201841FE
:10420000C0B2FEF719FC774A80183618266000F015
:10421000E7FA4119002D01D1734A00E0734A74484E
:1042200000F01CFBCEE0A6235B00E35C112E08D05F
:10423000212E06D04A23FF33E35C0020DA0792D513
:10424000C1E01C229343202BF4D16A4800F0D8FF30
:10425000694D721E92B2291C0020FEF781F8371FAB
:10426000644800F0CDFFBAB2691E0A20FEF778F864
:104270000190A8190538FEF7A5FD019B5D4F83420B
:10428000D8D1A81DFEF77EFD2B1C513BD861E81C40
:10429000FEF778FD2B1C0002000AA53B18600020E9
:1042A000FEF7FCFC112E42D8251CF635231CF433F6
:1042B00000211022281C1E8804F06FFD4E220123CD
:1042C000FF32201CA1182B700622F73004F05CFD91
:1042D000013E231CB6B2FD331E70231CFE33360A8A
:1042E0001E70E61DFF36291C1022301C04F04CFD08
:1042F000231CFF330222DA71381C00F081FF291CD5
:1043000010220020FEF72CF8381C00F079FF102254
:104310000020311CFEF724F8231CAC331A88242318
:104320001A4217D12A483549FEF7A0FA12E00C3597
:104330000326281CFEF732FD011E05D00123301C88
:1043400000225B42FEF71AFF0136F6B20335082E53
:10435000EFD1A9E7231CAC3319888B0613D5231C96
:10436000221CB033B2321B781278013AD2B2FF2A43
:1043700006D01A48C05CFF28F7D0013BDBB2F4E757
:10438000221CB03213701E4B00221940231CAC3388
:104390001980A4235B00E254FEF70EFB5823FF3381
:1043A000E25C0F231A403023FF33E254AC235B005E
:1043B000E25C2823FF33002A00D10122E2540620C8
:1043C000FFF796FD0120FEBD900A002000FF00FFD0
:1043D000849100008A0500008B0500001092000007
:1043E0007FF7FFFF6CDC0200714400005D440000B9
:1043F000A40A0020D0090020DD0B0020E405000005
:1044000059FDFFFF10B50A4B4C22FF329A5C1C1C71
:10441000002A07D13023FF33E25C06480649FEF745
:1044200049FB03E0FFF782FE0028F3D010BDC04631
:10443000900A0020D8B80500012C000008B54C22D5
:10444000054BFF329A5C002A02D14A21FF315A54AF
:10445000FFF76CFE08BDC046900A002008B5082092
:10446000FFF746FD08BD08B50520FFF741FD08BD73
:1044700008B5FFF7A1F908BD08B54C22094BFF327A
:104480009A5C002A0BD04A220421FF329954FEF78D
:10449000B7FE002803D00D20FFF72AFD01E0FFF74B
:1044A0008BF908BD900A002038B5534C231CAC335F
:1044B0001B88180603D451485149FEF7D7F94C25FB
:1044C000FF35635D002B00D08BE0A4225200A35C7B
:1044D000002B26D0072B22D80133DBB2A354221C99
:1044E000B0321078474AD35C013BDBB2FF2B06D0D9
:1044F000454A125CFF2AF7D00138C0B2F4E78021A8
:104500004942FEF729FC60680321AC34FEF7B4FA97
:104510002388802293432380FFF74EF95FE06022D7
:1045200000E020224A23FF33E2542623FF33E25CDB
:1045300051B2803101D00132E254A5220023520051
:104540006355A354231CAC331A888821101C88435C
:104550004A211880FF31615C480707D0D10405D596
:104560002A490F200A401A80FFF7C2FC0A20FFF7F1
:10457000BFFC2623FF33E2561D1C182A18DD231C1E
:10458000B0331878204B1B5CFF2B01D00138C0B230
:1045900080214942FEF7E0FB0C236355231CAC331A
:1045A0001988812252010A430E201A80FFF7A0FCCD
:1045B0009B256D00635D002B11D0221CAC3212884C
:1045C0000220024204D0FFF793FC0023635506E06B
:1045D000013BDBB26355002B01D1FEF71DFB01202F
:1045E00009E0FEF70DFE0028ACD14A23FF33E35C5F
:1045F000DA0700D469E738BD900A002084910000F2
:1046000053070000EB9100001092000077EFFFFFCE
:1046100010B54C230B4CFF33E35C002B0CD128234B
:10462000FF33E05C084B013058433023FF33E25C3A
:104630000649FEF73FFA03E0FFF736FF0028EED009
:1046400010BDC046900A002024F40000E92B0000B1
:1046500038B50D4C4C23FF33E35C002B11D14A22BB
:10466000FF32A35400F0BCF8051C0220FEF7E4F969
:10467000064B1434ED182918054A201C00F0EEF8FA
:1046800001E0FFF711FF38BD900A00206CDC02004A
:104690009546000008B5FFF707FF08BD10B5064CAA
:1046A000201C00F0A1F89834002000F0F3FB2388D0
:1046B00040221343238010BDA40A002070B50020BF
:1046C00000F0E8FB1A4D281C2C1C143C00F08CF860
:1046D000D62200215200201C04F05FFB00F032FBC8
:1046E000061C00F02FFB36022B1C0643E0332A1C6D
:1046F0001E809832002313802A1C9D3213702C22B6
:104700008021FF32A1543022FF32A354094BE835F7
:1047100028226B630121AB64FF329C238B40A154A0
:104720000322E254FF223A239B18E25470BDC04694
:10473000A40A002008E6D33308B5FFF7BFFFFEF751
:10474000DFFF0C20FFF7D4FB08BD0000024B402226
:10475000AC331A807047C046900A002008B5084B59
:104760000820191CAC310A881043088004210A4033
:1047700002D1A42149005A54FFF71EF808BDC046D3
:10478000900A002070B5051C141C1E1C342A11D878
:10479000002902D0094804F0F7FA094A131CBD3376
:1047A0001E70131CBC33BE321D701470FFF7D6FF91
:1047B000002001E00220404270BDC0464F0B0020A7
:1047C000900A002008B5054B00221A605A60FEF7D7
:1047D0006DF800F067FAFFF7B9FF08BD5C01002033
:1047E00008B5FDF7CDFF08BD10B5041CFEF700F8B5
:1047F0000C4A1368111C002B10D0A34202D01A1CC3
:104800001B68F8E71B68136005E0A342FAD01A1C86
:104810001B68002BF9D1FDF7F3FF10BD4B680A1D93
:10482000F7E7C0465C01002038B5041C0D1CFDF7FD
:10483000DFFF201CFFF7D8FF074A00232360A56095
:1048400053680432002B02D01A1C1B68FAE714606C
:10485000FDF7D6FF38BDC0465C01002070B5041CD2
:10486000161C0D1CFDF7C4FF201CFFF7BDFF0A4AF4
:104870000023236013686560A660002B08D0586889
:10488000411B002901DD236002E01A1C1B68F4E7CC
:104890001460FDF7B5FF70BD5C01002038B5FDF771
:1048A000A7FF0E4D6C68002C02D023686B600DE0F2
:1048B0002B68002B08D05868FDF790FF002803D024
:1048C0002C6823682B6001E0FDF7C2FFFDF798FF1D
:1048D000002C02D0A368201C984738BD5C01002042
:1048E00038B5051C00200C1CFDF72AFF802028434A
:1048F000FDF73EFF201CFDF73BFF0120FDF720FFE9
:1049000038BD000070B5264D0726EA891640D2064C
:10491000920F012A0DD0002A09D09023022A09D033
:10492000A42120484900FDF7A1FF002302E07023E5
:1049300000E08023E9894A06920F022A07D0032A61
:1049400007D0012A01D0022404E0042402E0062456
:1049500000E008241C43090A05D00123C9B2222023
:104960001C43FFF7BDFF211C1D20FFF7B9FFEB899A
:10497000310160311A0601D4042319431E20053E7B
:10498000FFF7AEFF0421012E05D8EB890C21DB06D1
:104990009B0F00D004212620FFF7A2FF70BDC04668
:1049A000900A00201A9200000F4B10B598680D4B2A
:1049B0000B4A410BC00403F083FD010C041CC9B277
:1049C0000620FFF78DFF210AC9B20720FFF788FFF5
:1049D000E1B20820FFF784FF10BDC046C046C046C4
:1049E0000048E80100000000900A0020C046C046D0
:1049F00010B5041C0020FDF7A3FE7F202040FDF72A
:104A0000B7FE0020FDF7B4FE041C0120FDF798FE60
:104A1000201C10BD10B5041C0120FFF7E9FF07237F
:104A2000011C99430C43E1B20120FFF759FF10BD6F
:104A300008B50D4B0F219B7C5AB2102A03DC012ACA
:104A400002DC022300E00B1C1940802211430920E4
:104A5000FFF746FF5A20FFF7CBFF04210143C9B2FD
:104A60005A20FFF73DFF08BD900A002038B5051C0D
:104A70000020FDF765FE0020FDF77AFE0024E3B27A
:104A8000AB4209D20020FDF773FE054BE3184D330E
:104A9000FF3318700134F2E70120FDF751FE38BDF5
:104AA000900A002038B5051C0020FDF749FE802043
:104AB000FDF75EFE0024E3B2AB4208D2064BE318DA
:104AC0004D33FF331878FDF753FE0134F3E701202F
:104AD000FDF736FE38BDC046900A002070B588212B
:104AE000041C0120FFF7FCFE0120FFF781FF0306F5
:104AF00003D426482649FDF7B9FE0120FFF78AFFB7
:104B0000022C08D11D200A21FFF7EAFE1E20702189
:104B1000FFF7E6FE03E0FFF7F5FEFFF745FF0C2089
:104B20002121FFF7DDFE40212320FFF7D9FE3320AE
:104B3000FFF75EFF40263043C1B23320FFF7D0FEBF
:104B4000144D1F20297CFFF7CBFE39203421FFF7BD
:104B5000C7FE301CC021FFF7C3FE1220FF21FFF764
:104B6000BFFE0D4B1120195DC943C9B2FFF7B8FE56
:104B70000020FDF7C1FD0520002C03D16868FDF77A
:104B800011FE0620FFF746FF70BDC0461A920000D6
:104B900021020000900A00208092000038B5041C19
:104BA0000120FFF725FF430704D0A52139488900DC
:104BB000FDF75CFE384BDA891D1C530765D1002CCC
:104BC00003D034483549FDF751FE01200821FFF795
:104BD00087FE0120FFF70CFF030603D52D4830495F
:104BE000FDF744FE0120FFF715FFFFF7DDFE0C2067
:104BF0002121FFF775FE0D201E21FFF771FE122007
:104C00000B21FFF76DFE13201221FFF769FE1F2015
:104C1000AA21FFF765FE27201221FFF761FE302051
:104C2000D821FFF75DFE31204021FFF759FE2820F3
:104C3000C121FFF755FE29209421FFF751FE2A20BC
:104C4000C121FFF74DFE2120FF21FFF749FE022081
:104C5000011CFFF745FE03208021FFF741FE0420E1
:104C60000121FFF73DFE05209921FFF739FE38218C
:104C70004020FFF735FE0020FDF73EFD6868FDF798
:104C800091FD0520FFF7C6FE02E0201CFFF726FF7E
:104C900038BDC0461A920000900A0020620200004F
:104CA00066020000F8B5FDF7A3FD0020FDF730FD1A
:104CB000FFF796FD3E30FDF775FD0220FDF728FD5C
:104CC000FFF78EFD3930FF30FDF76CFD0020FFF758
:104CD000A1FE4220FFF78CFE122803D01648174988
:104CE000FDF7C4FD0220FFF7F9FE0120FFF780FE6B
:104CF000072318400528F8D1012408252C20FFF7A8
:104D000077FE061C2C20FFF773FE01273E4007406C
:104D1000BE42F3D00A4B013DE25C52001643E6541A
:104D2000002DEBD10134102CE7D1281C1C70FFF7AB
:104D300071FEFDF765FDF8BD1A920000B10200009A
:104D40006401002038B50A4D2C78002C04D10948A4
:104D50000949FDF78BFD07E0102C05D1221C00202E
:104D6000291CFDF7FDFA0024285D01342C7038BDA4
:104D7000640100201A920000DF02000070B5FFF706
:104D80002FFD041C0120FFF733FE020647D5122039
:104D9000FFF72EFE030703D5394B023C1C6035E0BC
:104DA000402303402CD0364DEB89DA06920F05D113
:104DB00007221340334A5B009B5AE41A1D206C60A3
:104DC000FFF716FE420701D5222000E01320FFF76F
:104DD0000FFE4C24FF3428551020FFF709FE011C5C
:104DE0000D20FFF77DFD285DFFF740FE1920FFF73E
:104DF000FFFD68731A20FFF7FBFD3D38287305E0BF
:104E0000020603D54C221E49FF328B541120FF218C
:104E1000FFF766FD1220FF21FFF762FD28E03E202C
:104E2000FFF7E6FD051C3F20FFF7E2FD08260640E0
:104E300002D0134B1C601BE00422031C13400CD057
:104E40000F4D32206C60FFF7D3FD4C23FF33E85445
:104E5000FFF70CFE6E732E730AE0154204D04C224D
:104E60000749FF328B5403E007480849FDF7FEFC71
:104E70000020FFF7CFFD06488168FFF7D5FC70BD25
:104E8000900A0020729200001A9200002F03000086
:104E9000A40A002038B5041CFDF7AAFC032C00D995
:104EA000B3E0201C03F024FA0204ACAE002068E05A
:104EB0000120FFF79DFD420703D055485549FDF7F6
:104EC000D5FC554D4C24EB89FF3401205A075BD1AA
:104ED0001021FFF705FD0120FFF78AFD102804D0FF
:104EE000AE214B48FF31FDF7C1FC0120FFF792FDD9
:104EF0000220011CFFF7F4FC03208021FFF7F0FCE7
:104F000004200121FFF7ECFC05209921FFF7E8FCC4
:104F100025200021FFF7E4FC26200521FFF7E0FC17
:104F200027201221FFF7DCFC3020D021FFF7D8FC2E
:104F300031204021FFF7D4FC2820C121FFF7D0FC0D
:104F400029209421FFF7CCFC2A20C121FFF7C8FCBF
:104F5000FFF72AFDFFF76CFD40203421FFF7C0FC6E
:104F6000295D32200131C9B2FFF7BAFC295D00206A
:104F7000FFF7B6FC285DFFF795FD0120FDF7BCFBB0
:104F80000320FFF747FD40E08821FFF7A9FC01203F
:104F9000FFF72EFD030604D4DA211D48FF31FDF78B
:104FA00065FC0120FFF736FDFFF7ACFCFFF7FCFCCA
:104FB0000A20FFF71DFD0F23984308210143C9B2C2
:104FC0000A20FFF78DFCFFF733FD39203421FFF76E
:104FD00087FC4020F021FFF783FC1220FF21FFF720
:104FE0007FFC1120F721FFF77BFC0E200021FFF74B
:104FF00077FC0D200021FFF773FC295D2220B7E725
:10500000002000E00120FFF7C9FDFDF7F9FB38BDE6
:105010001A9200000B020000900A0020437A002B35
:1050200004D18372C372C36001234372704730B5E9
:1050300085B0041C02AD00680291039201F076FE77
:105040006B79E179227A00932068002301F010FF48
:1050500029792068029A01F039FE206801F05CFE8F
:1050600005B030BD70B5041C1826FFF7D7FF2079B6
:10507000331C43430D4D0821EB18595601F030FC09
:10508000A079331C43430821EB18595601F028FC42
:10509000607908214643AD19695601F021FC044BA3
:1050A000201C06CBFFF7C3FF70BDC0466C99000003
:1050B0007401002010B5041C006801F01FFE0023DD
:1050C000637210BD07B5837A00910192002B0DD059
:1050D0009A0706D5EFF310835A425341C37272B652
:1050E00004E0DA0702D58289034B9A600099019A9D
:1050F000FFF79DFF07BDC04600180040837A002BD4
:105100000BD09A0704D5C37A002B06D062B604E010
:10511000DA0702D58289014BDA6070470018004037
:1051200008B5006801F00BFE08BD0000094B0A4AF3
:105130000A491A6000225A711A71094B1960162126
:105140001971182199711721597101215A72D97158
:105150001A7270477401002000093D00CC03002042
:105160007C01002000000000F8B5051C0D2001F0B6
:105170009FFB414241410D2001F06AFB144F154C49
:105180003B78092B0ED9FFF72BFB0E4B0C4A061C64
:105190000021387803F0B4F90B4A0C4B03F06CF99A
:1051A000311805E0FFF71CFB3B780B4959434118C8
:1051B000281C221CFFF752FBF8BDC046C046C04663
:1051C00024F4000000000000E803000000000000DC
:1051D000080000206951000024F40000C046C046C9
:1051E00008B50249082203F0CFFD08BD93920000E4
:1051F00008B50249082203F0C7FD08BD1D94000050
:1052000008B50249102203F0BFFD08BD83920000DB
:1052100070B5051CFFF7E4FA2F4C011C0A22201C74
:1052200001F05BFC201C2D4901F00AFC681F0528D9
:105230004DD803F05DF8030A14174C21201C2849AF
:1052400001F01AFCF422274B3FE0201C264901F014
:1052500013FC244A01231370244A13703BE0201CE2
:10526000234936E0201C234901F006FC1D4B642233
:105270001A7000221D4B28E0201C1F4901F0FCFB86
:105280001E4D4A23FF33EB5C7F2B03D9201C1C49A6
:1052900001F0F2FB4C26FF36AB5D002B13D0194911
:1052A000201C01F0CDFB0A22A95D201C01F047FC67
:1052B0001549201C01F0C4FBA5235B00E95C201C00
:1052C0000A2201F040FC114B01221A7003E0104940
:1052D000201C01F0D1FB70BDDC030020D49800003D
:1052E0009B92000008000020A6920000B001002060
:1052F000B0920000CA920000D9920000900A0020EB
:10530000099300001693000020930000B1010020D3
:105310003F93000070B52C4C2C4D201C291C01F033
:105320008BFB2B49201C01F09DFB0D20012101F07E
:1053300035FA0420012101F031FA0D20012101F09C
:1053400087FA0021042001F083FAFA20C00001F05E
:10535000ADF80420012101F07BFAFFF733FA291C94
:10536000201C01F069FB1B49201C01F07BFB1A4942
:105370001A48FFF759FAFFF7A1F9FEF7C1F9FFF74D
:105380002FFA061CFFF72CFA154B801B1A68154BD9
:10539000904202DA1A78002A12D01B780020834249
:1053A00011D1291C201C01F047FB0F49201C01F0E2
:1053B00059FB0E4B64221A70FFF770F9022002E0CD
:1053C000FFF76CFADEE770BDDC0300204D930000B0
:1053D0005A9300006593000069510000A401002069
:1053E00000000020B00100207E9300000800002093
:1053F000144B10B51B78002B0AD1134C1349201CF9
:1054000001F01AFB201C124901F02CFB012018E0CE
:10541000104C114A114B012903D121701170002049
:105420000EE0022904D1012100202170107007E054
:10543000002020701070032902D101221A7000E0B0
:10544000187010BDB0010020DC0300204D93000057
:1054500091930000CE0100208C010020A0010020CB
:10546000134B10B51A7800239A4205D0C15C114A3B
:1054700099540133132BF9D10F4A1278002A08D01E
:105480000022C1188C5C0D49545401320F2AF8D106
:1054900013330B4A11780022914206D0C1188C5C5C
:1054A0000849545401320D2AF8D1002010BDC046DD
:1054B000CE0100208D0100208C010020BF010020C2
:1054C000A0010020B2010020F8B5041C184D0023F3
:1054D000CAB20120211C2B70FFF754F9154C164E4F
:1054E000201C311C01F0A8FA1449201C01F0BAFA62
:1054F000FFF776F9071C2B7801265E40FFF770F95D
:105500000F4BC01B1B68984204DA002E02D0FFF735
:10551000C5F9F0E72B780020834208D10649201C0A
:1055200001F08AFA201C074901F09CFA0220F8BD1C
:10553000B1010020DC0300204D930000A99300007E
:1055400004000020B7930000F8B5061C00233022A9
:10555000F2540133322BFAD1474C231CAC331B8855
:105560001A060AD5454C4649201C01F065FA201C54
:10557000444901F077FA02237CE0434B1B78002B6F
:1055800001D1002524E03D4D3D49281C01F054FA8D
:105590003E49281C01F066FA3D481321FFF794FFAD
:1055A000031E67D14C23FF33E25C191C331C002A15
:1055B000E7D0655C9A1BAA420ADAA5204000205C6D
:1055C000A21812184932FF3212791A700133F0E72B
:1055D000304B1B78002B24D0284F2949381C01F070
:1055E0002BFA2D49381C01F03DFA2C480F21FFF70A
:1055F0006BFF031E3ED14C23FF33E15C1A1C0029D4
:105600000FD0A35C98420BDAA5235B00E35C211862
:10561000CB184933FF331979731919540130F0E766
:10562000ED181F4B1B78002B01D1002322E0134FF4
:105630001349381C01F000FA1A49381C01F012FA1B
:1056400019480D21FFF740FF031E13D14C23FF33F0
:10565000E25C002AE9D0E25C9042E6DAA522520040
:10566000A25C21188A184932FF321179721911543B
:105670000130F0E7181CF8BD900A0020DC03002080
:105680004D930000C2930000CE010020DB93000088
:105690008D0100208C010020EA930000BF01002052
:1056A000A0010020FE930000B201002008B50849C7
:1056B000084801F0D7F90020FFF7ECFBFA20C00002
:1056C00000F0F4FE0D20002101F0C2F8002008BD1A
:1056D00011940000DC03002010B5054C0549201C86
:1056E00001F0AAF9201C044901F0BCF910BDC04624
:1056F000DC0300204094000052940000F0B54D4CB3
:105700004D4D97B001900F1C201C291C01F094F9FD
:10571000201C4A4901F0A6F90526291C201C01F08D
:105720008BF94749201C01F09DF9B8B20121FFF720
:105730005FFE0138C0B2012814D8291C201C013E8C
:1057400001F07AF9F6B2201C3E4901F08BF9002EE7
:10575000E3D1291C201C01F06FF9201C3A4901F00B
:1057600081F964E0291C201C01F066F93749201CEE
:1057700001F078F9391C0198FFF772FE291C201CF2
:1057800001F05AF9201C324901F06CF9002309AEEE
:1057900030229A550133322BF9D10527301CFFF7FF
:1057A000D3FE0138C0B2012816D8291C201C013FA5
:1057B00001F042F9FFB2201C264901F053F9002FF5
:1057C000ECD1291C201C01F037F92349201C01F0E1
:1057D00049F9FFF76BFF2AE0291C201C01F02CF986
:1057E0001E49201C01F03EF9201C1D4901F028F93A
:1057F0000025715D201C013501F026F9322DF8D10C
:10580000201C01F027F903AA1649131C31C931C322
:1058100031C931C300239900F05C5158814204D151
:105820000133062BF7D1002002E0012000E0FF2029
:1058300017B0F0BDDC030020409400006594000028
:10584000D5940000F0940000AE950000CB950000C8
:105850004195000061950000DC95000078950000FE
:10586000F89500002894000010B5054C0549201C4F
:1058700001F0E2F8201C044901F0F4F810BDC04624
:10588000DC030020BC96000052940000F0B58DB0FF
:10589000061C0391322000F009FE4D4C201C01F043
:1058A00050FB0290002804D0201C01F054FB05207E
:1058B000F1E7484D484F281C391C01F0BDF8474915
:1058C000281C01F0CFF82368201C5B684449132290
:1058D00098472368327A5B68201C311C9847FA216C
:1058E000201C890001F0FDFA727A201C04A901F045
:1058F000FAFA727AC3B22C1C9A4206D0391C281CC0
:1059000001F09AF8281C374912E06A46137CC52B2F
:1059100008D1537C6A2B05D1937C292B02D1029AA2
:10592000131C17E02C49201C01F086F82E49201C7E
:1059300001F098F8FF2049E001275D101F40EBB20D
:10594000002F03D074235B425D40EBB20139002984
:10595000F2D10132FF25011C294001398A4205DAC2
:1059600004ADA95C4B40DBB20821E5E704A8425C2A
:105970009A4206D01849201C01F05EF8201C1B49F1
:10598000D6E7B17A04AB5918F27A039803F0FCF920
:105990001149201C01F050F8201C154901F050F865
:1059A000F37A019D201C9D420DDA124901F048F85E
:1059B000039D01981022295C201C01F0C0F8019D74
:1059C00001350195ECE701F045F800200DB0F0BD80
:1059D00034020020DC030020BC960000CD960000BD
:1059E00007960000DD960000ED960000F896000096
:1059F00005970000D5980000F7B51D4C1D4E00908E
:105A0000311C201C01F018F8201C1B4901F02AF859
:105A100000270026194B0099FB58181C0193FFF72B
:105A200035FF051E0BD0052E1CD11249201C01F09C
:105A300003F8201C124901F015F8FF2515E0052E8A
:105A4000F3D0019A0437D37A009AD2180092182F13
:105A5000DFD1201C074900F0EFFF201C094901F0AD
:105A600001F802E0731CDEB2D4E7281CFEBDC0467C
:105A7000DC030020BC9600000B9700008C96000011
:105A80002697000038970000F7B5174D174F019083
:105A9000391C281C00F0D0FF281C154900F0E2FF3B
:105AA000002414480199FFF7F1FE061E0BD0052CC7
:105AB00014D1391C281C00F0BFFF281C0E4900F02F
:105AC000D1FFFF260DE0052CF3D0391C281C00F077
:105AD000B3FF281C094900F0C5FF02E00134E4B21D
:105AE000DFE7301CFEBDC046DC030020BC96000092
:105AF0004D97000060980000269700006397000013
:105B0000F7B51D4C1D4E0090311C201C00F094FF79
:105B1000201C1B4900F0A6FF00270026194B009906
:105B2000FB58181C0193FFF7B1FE051E0BD0052E84
:105B30001CD11249201C00F07FFF201C124900F0EC
:105B400091FFFF2515E0052EF3D0019A0437D37A93
:105B5000009AD2180092282FDFD1201C074900F0AC
:105B60006BFF201C094900F07DFF02E0731CDEB2D0
:105B7000D4E7281CFEBDC046DC030020BC96000014
:105B8000739700004C96000026970000899700004C
:105B900070B5204C204D92B0291C201C00F04CFF09
:105BA0001E49201C00F05EFF1D4E9621301C09028C
:105BB00001F0B0F96846FFF7A3FF00281AD1301CA6
:105BC00001F0B0F902211320FFF712FC13216846FF
:105BD000FFF746FC05A8FFF7B7FC291C201C00F0C6
:105BE0002BFF1049201C00F03DFF642000F05EFCFC
:105BF00012B070BD291C201C00F01EFF201C0A4999
:105C000000F030FF002300226946CA540133132BF1
:105C1000F9D1D4E7DC030020BC960000F797000020
:105C200034020020F495000017980000F0B5204CD5
:105C3000204E93B0311C201C00F0FEFE1E49201C9B
:105C400000F010FF1D4F9621381C090201AD01F034
:105C500061F9281CFFF7D0FE00281AD1381C01F08A
:105C600061F903210D20FFF7C3FB0D21281CFFF76D
:105C7000F7FB05A8FFF768FC311C201C00F0DCFED8
:105C80000F49201C00F0EEFE642000F00FFC13B062
:105C9000F0BD311C201C00F0CFFE201C094900F093
:105CA000E1FE00230022EA5401330D2BFAD1D5E79F
:105CB000DC030020BC960000409800003402002065
:105CC000F495000017980000F0B5164F8BB09621A0
:105CD0000902041C01AE381C01F01CF9301CFFF74E
:105CE000D3FE0023051C0022002D00D1F25CE254FB
:105CF00001330E2BF7D105AE301CFFF701FF45191C
:105D0000EDB20023E2180021002D00D1F15C013337
:105D10009173132BF6D1381C01F004F9281C0BB039
:105D2000F0BDC0463402002010B5094C0949201CC2
:105D300000F082FE201C084900F094FE132001218F
:105D400000F02CFD1320012100F082FD10BDC046A3
:105D5000DC030020CC9800005294000010B5132002
:105D6000002100F075FD084C0521201CFFF7D8F933
:105D7000201CFF21FFF7D4F90121041C132000F09F
:105D800067FD0120204010BD7C01002010B5041CDF
:105D9000002C03D160426041C0B210BDFFF7DEFFAE
:105DA0000028F7D00120013C00F080FBA4B2EFE70F
:105DB00010B5084C0849201C00F03EFE0749201C85
:105DC00000F050FE0648FFF74DF9FA208000FFF77B
:105DD000DDFF10BDDC030020CC98000065940000BE
:105DE0007C01002010B50A4C0A49201C00F024FE5A
:105DF0000949201C00F036FE084BFA201A88084B8F
:105E000080001A80FFF7C2FF0648FFF753F910BD64
:105E1000DC030020CC980000E7980000D2010020AD
:105E2000D00100207C01002038B5154C1549201CFC
:105E300000F002FE201C144900F014FE1320002183
:105E400000F006FD114D0621281CFA24FFF768F921
:105E5000A4000121132000F0FBFC201CFFF796FF9B
:105E60001320002100F0F4FC281CC721FFF758F98B
:105E70000121132000F0ECFC201CFFF787FF38BD48
:105E8000DC030020CC980000EB9800007C0100208F
:105E9000F8B5061C0C1C13200021171C00F0D8FCC0
:105EA0001B4D0621281CFFF73BF90121132000F0B0
:105EB000CFFCFA208000FFF769FF011CFF200029BA
:105EC00025D1132000F0C4FC0221281CFFF728F97B
:105ED000210A281CFFF724F9E1B2281CFFF720F95A
:105EE000341CA31B9BB2BB4205D22178281CFFF7B0
:105EF00017F90134F5E71320012100F0A9FCFA207D
:105F00008000FFF743FF431E98414042C0B2F8BDF6
:105F10007C010020F8B5061C0D1C141C002C1BD0A5
:105F20007F272F403B197F2B0DDD8023DF1BBFB266
:105F3000301C291C3A1CE41B7D19FFF7A9FFA4B2F1
:105F4000ADB2F61905E0221C301C291CFFF7A0FF9A
:105F500000240028E2D000E0201CF8BDF8B50C1C9D
:105F6000061C00211320171C00F072FC104D0321A9
:105F7000281CFFF7D5F8210A281CFFF7D1F8E1B259
:105F8000281CFFF7CDF8341CA31B9BB2BB4206D2E2
:105F9000281CFF21FFF7C4F820700134F4E7012129
:105FA000132000F055FCFA208000FFF7EFFEF8BD4B
:105FB0007C010020F0B587B0FFF7FAFE002203AEA7
:105FC000925501320A2AFAD1802168464900FFF72A
:105FD000C5FF0025424C4349201C00F031FD6A46B4
:105FE000515D201C1022013500F0A9FD0A2DF1D1D0
:105FF0003D49201C00F040FDFFF716FF80212A1CC0
:1060000068464900FFF7AAFF00252F1C3549201CD0
:1060100000F016FD6B46595D1022201C00F08FFD2C
:106020006A46535DFF2B00D0FF2701350A2DEDD1C5
:106030002E49201C00F004FD80212A1C4900301C40
:10604000FFF768FF80212A1C68464900FFF786FF9A
:1060500000252449201C00F0F3FC6B46595D1022FA
:10606000201C00F06CFD6B465A5D735D9A4200D0B7
:10607000FF2701350A2DECD1201C1D4900F0E0FC62
:1060800000256B00735501350A2DFAD180212A1C99
:106090004900301CFFF73EFF80212A1C684649005A
:1060A000FFF75CFF00250F49201C00F0C9FC6A4681
:1060B000515D201C102200F042FD6B465A5D735D5D
:1060C0009A4200D0FF2701350A2DECD10949201C46
:1060D00000F0B6FCFFF786FE381C07B0F0BDC046E6
:1060E000DC030020D59800008E9D00000A99000076
:1060F000209900008D9D000010B52A4C2A49201CD3
:1061000000F09AFC201C294900F0ACFC0023284A2E
:10611000002199500C33602BF9D1264B20219A692C
:106120000A439A61244A254B9A82254B254A9A6054
:106130005A7852B2002AFBDB2349214A51605A782F
:1061400052B2002AFBDB21491D4A51805A78D209FC
:10615000FCD11F4A022113888B431380917A1C4B78
:10616000C909FBD11988012001431980917A184B84
:10617000C909FBD11988174801431980998A89B246
:10618000998280211972D8790143D9711249082066
:1061900008601988022001431980937ADB09FCD139
:1061A00010BDC046DC0300204D9900005294000051
:1061B000D401002000040040CE060000000800408A
:1061C000000C00400204000002051100044200001F
:1061D00000140040040A000000E100E0084B8022A7
:1061E0001A7200230C225A4306495058002803D043
:1061F0008A185168013951600133082BF2D1704778
:1062000000140040D4010020F8B5114F041C0D1CEF
:10621000381C1049161C00F00FFC381C0E4900F009
:1062200021FC72B600230C225A430C49D8B25758AD
:10623000002F04D154508A185560966003E0013352
:10624000082BF0D1181C62B6082800D1FF20F8BD39
:10625000DC0300204D9900005A990000D401002071
:10626000034B04211A690A431A6130BF7047C046C4
:1062700000ED00E0F8B51E4D1E49281C00F0DCFBC7
:10628000281C1D4900F0EEFB00242E1C072C18D8FA
:106290000C226243194D5359002B0FD0AA18526893
:1062A000002A0BDC984772B60C226243AB1899683F
:1062B00000291ADD5A685118596062B60134E4B2F7
:1062C000E4E7FFF7CDFFE121301C490200F08EFF2B
:1062D00001210D2000F0BCFA012000F0E7F80D20AC
:1062E000002100F0B5FA0024D0E70023AB50E4E72A
:1062F000DC0300204D99000063990000D4010020C8
:1063000008B5024800F056FE08BDC0463402002021
:1063100008B5024800F04EFE08BDC046F802002055
:10632000F7B5164F1649381C00F060FC15491648A1
:1063300000F05CFC1549164800F058FC1549164859
:1063400000F054FC1549164800F050FC154D03268A
:106350000124281C144900F049FC391C0096231C18
:1063600001940022114800F001FE0096291C0194BE
:106370001F221E230E4800F0F9FDF7BDC0030020C8
:1063800000080042000C0042C4030020001000423C
:10639000C803002000140042BC0300200018004283
:1063A000CC030020D0030020001C00423402002057
:1063B000F8020020FEE7000008B5034B1B68002B25
:1063C00000D0984708BDC046D403002038B50F4917
:1063D0000F4CA14204D100F087F800F0E5FA0BE081
:1063E0000C4D8D42F7D00023CA18E818A24204D2FF
:1063F000006804331060F7E7FEE79042EBD0064BED
:10640000064A9342E7D2002204C3F9E700000020C5
:1064100020010020AC9E000020010020400C002044
:1064200008B500F05EF8002801D100F04FF808BD73
:10643000014B18607047C046D4030020014B186818
:106440007047C046D8030020F7B5144D144CA96816
:106450001448626803685201D20F2E1C271C844620
:10646000B0687D6801906D016046ED0F0468AA4236
:1064700003D02A1C231C0199F2E7A342FAD1019808
:106480008142F7D30548D2184068FA23411A0648DA
:106490009B0048435343000DC018FEBD10E000E0D0
:1064A00000ED00E0D80300205555000070B5041E33
:1064B00008D0054B1D681E1C00F012F833685B1BEA
:1064C000A342F9D370BDC046D803002008B5034BE2
:1064D0001A6801321A6000F04FFB08BDD803002093
:1064E000704700207047000070B5494A1E2153686C
:1064F00002208B430343474953608B69082423439D
:106500008B61454C454B9C829C8A20439882101C91
:10651000DA689407FCD5424A012414701478E50720
:1065200004D53F4C647864B2002CF7DB01249460FE
:10653000547864B2002CFBDB3A4D394C65605478DA
:1065400064B2002CFBDB8225354CED01658054786C
:1065500064B2002CFBDB02249C84DC68E606FCD5DC
:10656000314D2E4CE562DD682C4CEE06FBD5A58C3A
:106570002E4E3543A584DD68284CEE06FBD5A58C50
:1065800002263543A584DC682506FCD5234CE46847
:106590006606F8D5DC68E506FCD5002494605478DE
:1065A00064B2002CFBDB224D1D4C656055781C4C01
:1065B0006DB2002DFADB1E6A1E4D35401D621D6A4C
:1065C0008026B5431D620323A3601B4B6360537891
:1065D0005BB2002BFBDB00230B72184A4B728B72F1
:1065E000CB72174BFF211A60164B174A1B681268B3
:1065F0005C01D20E214011439A06520F12020B1C6D
:106600001343124A1385436880221343436070BDCD
:1066100000400041000400400C060000000800405B
:10662000000C004001050100B805FF7D040A0000D0
:1066300000070300FFFCFFFF03060100006CDC0203
:106640000C00002024608000206080000040004298
:10665000314BFA21186810B5890001F05DFE2F4B0F
:106660000138984224D82E4A2E4B5060186AC02117
:106670000002000A09060143196200240721946000
:106680001160196A80220902090A12060A431A6275
:10669000254BFC211A6A0A431A62196AFC229201EC
:1066A0000A431A62196AA022D2020A431A6200E05F
:1066B000FEE7201C0021013400F070F8142CF8D102
:1066C0001A4C63785BB2002BFADB194B6380194BD1
:1066D0005A7ED209012AFAD0E422D2009A803F22BF
:1066E000DA70597E134AC9090129FAD0C0235B0127
:1066F00000201361907000F023F863785BB2002BE8
:10670000FBDB0D4A094B5A800C4BDA79D209012A7E
:10671000FAD041225A7010BD0C000020FFFFFF008C
:1067200010E000E000ED00E000040040000C00403C
:106730001E4000000040004221400000004800428E
:1067400000B5144A517E131CC9090129F9D001383A
:10675000042813D81969104A0A401A615A780F217F
:106760008A4301F0C5FD030509070300012102E08A
:10677000032100E002210A435A700AE01169F02364
:106780001B050B43136153780F218B4302210B43ED
:10679000537000BD00400042FFFFFFF010B5182409
:1067A000021C201C5043274B1818007A40B20130BD
:1067B00046D0032944D8081C211C01F099FD02335E
:1067C0001121624398569A18C3011F4852681B183A
:1067D00099184031022008700121914059602FE042
:1067E0006243985618499A185268C3015B18991861
:1067F00040310620087001219140596099611FE0E5
:1068000051435A56104859184B68D2011118C818EC
:106810004030062404700120984048600B4952180B
:1068200050600DE0624398569A18C30106485268BA
:106830001B1899184031022008700121914099607D
:1068400010BDC0466C990000004400411044004156
:1068500018235843134AF0B5131808241C57013461
:106860001FD08256104ED2015D6801249019231C5E
:106870008668AB401E420BD10E1C771EBE414019EC
:1068800034404030A50004780426B4432C430470FF
:10689000002903D105495218536002E0024E9219B3
:1068A0009361F0BD6C990000004400411044004128
:1068B00018235843084A082113185956013109D0A2
:1068C00082560649D20152185B68106AD8400123EB
:1068D000184000E0002070476C990000004400411F
:1068E00018224243F8B52D4D0824AA181457031C4A
:1068F000621C50D0481C00240C284CD801F0F8FC35
:10690000071E1E1E1E1E1E1E1E0A0A0A0A00012443
:10691000644240E0092902D1181C002103E00A2941
:1069200004D1181C0221FFF739FF23E000240B29B2
:1069300031D1181C0121FFF731FF2CE018225343FD
:10694000EA185268EB560120141C04405508DB017C
:10695000002C11D0124C1B195D1930352E780C010A
:106960000F21314021439A18C9B22970403213785F
:106970001843107000240EE0094E0F279B195D1973
:1069800030352E789A18BE433143C9B2297040324F
:10699000137818431070201CF8BDC0466C99000095
:1069A000004400417047000010B5FFF751FE02F0AF
:1069B000BBF9FFF7F7FF0120FFF778FD084C201C1B
:1069C00000F050FE201C00F0C5FEFBF7F1FBFBF7CA
:1069D000A1FB044B002BFAD000E000BFF7E7C04654
:1069E000A708002000000000F7B58A18061C0D1C3F
:1069F00001920C1C019B671B9C4207D033682178D5
:106A00001B68301C984701340028F3D1381CFEBDA8
:106A100008B50368C9B21B68984708BD38B5051C9E
:106A20000C1C081E07D002F027FA2B68021C5B68BA
:106A3000281C211C984738BD08B5FFF7EFFF08BD9B
:106A400008B5FFF7EBFF08BD08B503681B6898475A
:106A500008BD000008B50249FFF7E0FF08BDC046C9
:106A60008C9D000038B5041CFFF7D8FF051C201CC6
:106A7000FFF7F0FF281838BD38B5041CFFF7CEFF2C
:106A8000051C201CFFF7E6FF281838BDF0B58DB0B7
:106A9000161C0BAB002201900C1C1A70012E00D8A2
:106AA0000A266D462B35201C311C01F079FC201C78
:106AB000CFB2311C01F030FC291C041C092F01D875
:106AC000303700E03737FFB22F70013D002CEAD19C
:106AD0000198FFF7A3FF0DB0F0BDF8B5041C0D1C25
:106AE000161E04D10368C9B21B68984712E00A2A2F
:106AF0000DD100290ADA2D21FFF7A6FF6942071CF4
:106B0000321C201CFFF7C2FFC01903E000E0D2B224
:106B1000FFF7BCFFF8BD38B5041CFFF7DEFF051C0E
:106B2000201CFFF797FF281838BD08B5002A02D1AE
:106B3000FFF76EFF02E0D2B2FFF7A8FF08BD08B56D
:106B4000FFF7F3FF08BD38B5041CFFF7EEFF051C87
:106B5000201CFFF77FFF281838BD0000014B18608C
:106B60007047C04610000020024B012252421A60BA
:106B70007047C04610000020154A1368581C25D0E5
:106B8000013B1360002B21D172B6124A124B043222
:106B90009A4207D8BFF34F8F104A114BDA60BFF308
:106BA0004F8F11E00F4B197DC807FBD5188B2021A3
:106BB000FF319208520001431983DA610A4A1A80B0
:106BC0001A7DD107FCD5E5E7C046FDE77047C04612
:106BD0001000002000200000030200000400FA055D
:106BE00000ED00E00040004102A5FFFF016070479A
:106BF000F7B508AC267804689D1E27686C1EA54171
:106C0000ECB2920705683A4327063A432A600268C5
:106C1000072529405068B501002C00D05C032943AA
:106C200001430C435460F7BD30B50368C0251C68B0
:106C3000AD0312052A402243C024A40209042140C6
:106C40001143196003685A6814435C6030BD0368DF
:106C500001211A680A431A60026811680123194267
:106C6000FBD1D1691942F8D17047036802211A6833
:106C70000A431A600268D3699907FCD47047036815
:106C80001A7ED10702D41A7E9107FCD5704703689B
:106C900000225A8370470368187E4007C00F704770
:106CA0000368187EC009704703688022197E52422B
:106CB0000A431A7670470368188DC0B2704703689C
:106CC0001A7E01200242FBD01985704770B5036817
:106CD00001268D07ED0F31401C686D070907294318
:106CE0002143196004685100034801F015FB013885
:106CF000C0B2207370BDC046006CDC020368012185
:106D00001A680A431A600268116801231942FBD10C
:106D1000D1691942F8D17047036802211A680A4301
:106D20001A600268D3699907FCD470470368DA696E
:106D30009107FCD41A6802218A431A6070470368DD
:106D40009A6A520A52021143996203681A7E5107E5
:106D5000FCD5986AC0B270470368224A30B59342A6
:106D600011D0214A934211D0204A934211D0204A97
:106D7000934211D01F4A934211D01F4A934230D1FF
:106D80000E2319220DE0092314220AE00A231522FA
:106D900007E00B23162204E00C23172201E00D2349
:106DA0001822DCB2154901209B08A0409B00086016
:106DB0005B180320C021890004405D58E000FF24D7
:106DC0008440A5432C1CC0258540281C20435850D6
:106DD0008023DB011A430A4B5A805A7852B2002AA8
:106DE000FBDB30BD00080042000C004200100042F6
:106DF0000014004200180042001C004200E100E0C4
:106E0000000C0040F8B5041C151C0E1C1F1CFFF7DD
:106E1000A3FF201CFFF71BFFB1001C220A406907DB
:106E20002368090C0A431A60226884239375012E93
:106E30001AD10821012D00D110210C4B794318687B
:106E4000C00001F069FA236807219A890140D20441
:106E50004903D20C0A439A8123680004C20C988922
:106E6000400B400310439881F8BDC0460C00002041
:106E7000F7B5019308AB041C1F780D1C161CFFF717
:106E80003DFF201CFFF768FFBF070C221743C022FD
:106E9000920336051640C02292022D0423683E4319
:106EA00001991540354307221D600A40802123685F
:106EB00089020A435A60F7BD10B5041CFFF7BEFAF9
:106EC000E0602368201CDB689847002808DAFFF799
:106ED000B5FAE368C01AA3689842F2D30120404291
:106EE00010BD81607047F7B58A18071C0D1C019210
:106EF0000C1C019B661B9C4207D0381CFFF7DCFF73
:106F0000002802DB20700134F3E7301CFEBD0120B5
:106F10007047000008B50368014ADB69984708BD5F
:106F20001304000010B5041C0069FFF790FE201C3C
:106F3000143001F054F910BD08B50069FFF79FFE49
:106F400008BD08B5143001F065F908BD08B5143066
:106F500001F069F908BD08B5143001F047F908BD22
:106F600008B50069FFF7ABFE012008BDF7B51D1C91
:106F700008AB1B78041C009309AB1B78161C01930B
:106F800000234360FA239B008360094B0F1C0833E6
:106F90000360143001F004F9009A231CC033276108
:106FA0009A70019A1E705D70201CDA70FEBDC0469A
:106FB000A09D000010B5041C0069FFF76CFE0028BE
:106FC00007D02069FFF777FE011C201C143001F068
:106FD000F4F82069FFF764FE002805D02069FFF768
:106FE00063FE2069FFF753FE10BDF023081C184014
:106FF0003038434258417047F0231B011940802329
:107000009B0099420CD0C0239B00994206D080235C
:107010005B000520994204D0002002E0072000E038
:10702000062070470F231940012905D002394B4231
:107030004B410220C01A00E000207047F0B5031C4D
:1070400085B00391C033041C182718783B1C4343B8
:107050001B4E0821F3185956151CFFF741FC231C41
:10706000C133187808214743F6197156FFF738FCE9
:1070700001210A1C039B2069FFF7C4FE291C201C68
:10708000FFF7BAFF291C071C201CFFF7CBFF291CA8
:10709000061C201CFFF7A9FF391C0090331C206937
:1070A0000122FFF7A5FD231CC3331978013B1A7891
:1070B0002069FFF7B9FD2069FFF7D7FD05B0F0BDE6
:1070C0006C9900003F20704713B502686B46D97178
:1070D00007335468191C0122A04716BD08B5006982
:1070E000022100F03BFC08BD08B50069032100F057
:1070F0004BFC08BD38B50D1C041C131C0069032192
:107100002A1C00F03DFD002801D10123636038BD39
:1071100010B5054C23685A1C04D10368DB689847F6
:107120002060031C181C10BD64000020074A08B52D
:107130001368591C04D0012149421160181C03E056
:107140000069022100F00EFD08BDC0466400002069
:1071500008B503780349023303704222024800F065
:10716000C5FD08BD20000020A708002010B501784B
:10717000031C42780020A12908D1212A2FD11848C8
:107180001849072200F0B2FD012028E0212926D16C
:10719000202A05D113490722114800F03BFC04E0E6
:1071A000222A10D19A780F4BDA710E4B9622196869
:1071B000D200914210D1DC7901231C400CD1FA207D
:1071C000FFF7CCFC0AE0232A09D1DA789B78120277
:1071D0001A43054B1A6002E0FFF7C6FC002010BD01
:1071E000A7080020140000201C00002070470000A9
:1071F00010B5FFF723F9F423FF330024984207D991
:10720000044B0A20DC79631E9C41E4B2FFF74EF97F
:10721000201C10BD14000020064BFA218900996043
:10722000054900220831196004495A6019611A762B
:107230007047C046DC030020D09D0000A708002056
:1072400070B5C2B219495301CB189E68184DC024BD
:107250002E40A40526439E60164E80010968301812
:10726000083258605201505C0726B0430126304373
:1072700050549E6935402C439C610F4C5C61505CBE
:107280007024A0431024204350549C680B488A1853
:107290002040802464032043986098684021800B3C
:1072A0008003986053790B43537170BDB008002080
:1072B000FFFFFF8FC806002004050020FF3F00F0FD
:1072C00038B5041C08CC01211A78051C0A431A7031
:1072D0008022201C0021520001F05FFD2B689A786B
:1072E000D107FCD45C6238BD134BF0B51B68990321
:1072F0005A029B01C90ED20E5B0F1F2900D1052136
:107300001F2A00D11D22072B00D1032304688E0100
:10731000278D0A491F2539403143218501682A40BC
:107320000C8DAC4322430A8502681903108D044B6F
:1073300003400B431385F0BD246080003FF8FFFF3E
:10734000FF8FFFFFEFF3108303600123436072B6EA
:1073500070470368002B02D162B6BFF36F8F70478E
:1073600037B50569041C6846002D12D1FFF7EAFF06
:10737000019B013B03D3621DD57FEDB2F9E768465F
:107380000193FFF7E6FF0020854217D0206AE369EA
:1073900013E0FFF7D7FF019B0025013B04D3221C1C
:1073A00034321578EDB2F8E768460193FFF7D1FF64
:1073B0000020854202D0206BE36AC01A3EBD000067
:1073C000436810B51A68037A01215B01D318FF33B3
:1073D0009A7A0A439A72037A42685B01D318C268A8
:1073E0009C6891040B4A090922400A439A60037A77
:1073F00042685B01D3189A684021920B92039A600D
:1074000043681A68037A08335B01D3181A790A4370
:107410001A7110BDFF3F00F0F7B50569041C0E1C82
:10742000171C6846002D1FD1FFF78CFF019B013B05
:107430005A1C06D0621DD17F5A1E00293AD0131C57
:10744000F6E768460193FFF784FF0025E369BD4234
:1074500035D0226A934232D25A1CE261A269D31813
:107460001B7873550135F1E7FFF76CFF019B013B7A
:107470005A1C08D0221C343215785A1EEDB2002D49
:1074800018D0131CF4E768460193FFF762FF00254C
:10749000E36ABD4226D0226B934241D322E0621DB3
:1074A0000021D17730321678581E8E4214D1031C39
:1074B0005A1CF4D168460193FFF74BFF38E0226A6B
:1074C000934235D10023E361012323616846FFF72E
:1074D00039FF019B013BEBE71170201C0193FFF783
:1074E0006FFFF6E7226B934222D10023E362236110
:1074F0006846FFF727FF019B013B5A1CDAD0221C8C
:1075000034320021117001321678581E8E4201D19A
:10751000031CF2E71170201C0193FFF751FFEAE70B
:107520005A1CE262A26AD3181B7873550135AFE783
:10753000281CFEBD37B54368027A1B680832520129
:107540009A18041CD0790123FF21184253D0D3711B
:10755000A068656962680140002D20D14901521878
:10756000916863618904890C2162A16A684651604F
:10757000621DD377FFF7E6FE019B013B5A1C33D017
:10758000221C34321178581EC9B20132002903D0AE
:1075900001930123137023E01170031CEEE74B01EC
:1075A000D3189A68A5699204920C22630022626142
:1075B00068465D60FFF7C6FE019B013B01E011706C
:1075C0002B1C591C10D0221C343201201070621D5B
:1075D000D17F5D1EC9B230320029F0D00193107006
:1075E0006846FFF7B6FE06E068460193FFF7B1FE76
:1075F000201CFFF7E5FE37BD37B500236C46E3716D
:107600000734201C0D1CFFF7A3FD2B6818182860F9
:1076100000F05CFE211C00F013FE2B681818286097
:1076200020783EBD03290BD10D4BB2221B685200BE
:10763000985C8021494201439954022168220CE060
:1076400001290CD1064B92221B685200985C8021C4
:1076500049420143995402212822FF32995470472C
:10766000B008002038B5304B00240121051C1A2039
:107670001C70FFF793F81A200121FFF7E9F82B4B54
:10768000192001211C70FFF789F819200121FFF74B
:10769000DFF8274B2021DA6901200A43DA61254B04
:1076A00006241A7802431A70234B0F22197891434B
:1076B000197019782143197020490C7820430870FB
:1076C00019780A401A701A7860210A431A701C4B04
:1076D0001C4A5A805A78D209FCD11B48FEF7A8FEF2
:1076E0001A4C201CFFF7ECFD201CFFF7FDFD236862
:1076F0007F2219780A401A701A7804210A431A70F6
:107700001A890C218A431A81C121114A89005058D3
:107710000002000A5050802111601A7802210A43A9
:107720001A7001232B7038BDC4060020AC0800205D
:1077300000040040584400413C4400415944004189
:10774000000C00400640000079810000B0080020D5
:1077500000E100E00078002810D0094B01211B68EF
:107760001A898A431A811A8B08210A431A831A8BB1
:1077700004210A431A83034B00221A607047C04653
:10778000B0080020B40900200F4B9A69920B9203B5
:107790009A611B680222FF331A7298798022524242
:1077A00002439A711A7A9007FCD5084B081C997A03
:1077B0007F221040914301439972997A802252426C
:1077C0000A439A727047C046B0080020005000413A
:1077D00010B50B790C1C002B0BD1081CFFF7C6FC55
:1077E000002804D1094B9A69920B92039A610120F7
:1077F0000BE000F06BFD211C00F056FD0028F6D1D7
:10780000024B9A69920B92039A6110BDB008002056
:10781000F8B50D1C832A16D1CAB242495301CB18C0
:107820009C694148AD012040C024A40520439861D3
:107830003E48083245195D610B685201D15C7020E9
:107840008143402065E0022A45D1382000F0A4FCA5
:10785000374B344F8026036076000023421D0362BD
:1078600003614361C36147608560C660D3772F328F
:10787000041CC36203631370301C537001F07AFA66
:10788000A061301C01F076FAFF232A1C1A40520135
:10789000A062BF18B968244A07260A40C02189059A
:1078A0000A43BA60A1686268194012680831490148
:1078B000885CAD00B043032630438854A1686268F9
:1078C0000B405B01A169D3185960201CFFF778FDBC
:1078D000184BEC5025E0822A1ED1CAB2114953013F
:1078E000CB189C691048AD012040C024A40520435A
:1078F00098610E48083245195D610B68520199186C
:107900000C798020404220430871D15C7020814373
:1079100030200143D15404E0002A02D1081CFFF7B3
:107920008FFCF8BDB0080020FFFFFF8F040500208A
:10793000009E00008808002038B5051C0124064B75
:10794000A200D258002A06D0211C281C0134FFF7BF
:107950005FFFE4B2F3E738BD6800002008B5084BCC
:107960008A00D058002803D003689B68984706E037
:10797000C9B2044B4901591888688004800C08BDBD
:1079800088080020B008002010B50C1CFFF7E6FFA7
:1079900000280CD0064BE1B21B6808314901591888
:1079A0004A7980235B4213434B710223CB7110BD94
:1079B000B008002070B5CAB2134B144854018901B5
:1079C0005918031959609D681149083229408025CA
:1079D000AD022943996099684026890B8903996013
:1079E0000368510159180D7935430D71510159182A
:1079F00089794D06FAD551015918C979CD07FAD5BB
:107A00000419A068C0B270BDC8060020B0080020EC
:107A1000FF3F00F038B50C4B141C1B680D1CFF33E6
:107A20005A7940210A435A710021FFF7C3FFA0424F
:107A300000D9201C0023A34204D0044A9A5CEA54D3
:107A40000133F8E738BDC046B0080020C806002062
:107A500010B5C9B20C48490143189A689204920CB7
:107A60003F2A08D9141C9A68403CA404920BA40C29
:107A70009203224302E09A68920B92039A604118A3
:107A80008868C0B210BDC046B0080020F0B51C1C0C
:107A90002F4B85B01B68061C0D1C0292002B51D089
:107AA0002C4F3978C9B2002902D11920FEF7D0FE37
:107AB00064233B70284BAA00D058002805D00368E7
:107AC00002995B68221C984740E0301C291CFFF794
:107AD00045FFA04204D2301C291CFFF73FFF041CC5
